{
  "_format": "hh-sol-artifact-1",
  "contractName": "NFTMarket",
  "sourceName": "contracts/Market.sol",
  "abi": [
    {
      "anonymous": false,
      "inputs": [
        {
          "indexed": true,
          "internalType": "uint256",
          "name": "itemId",
          "type": "uint256"
        },
        {
          "indexed": true,
          "internalType": "address",
          "name": "nftContract",
          "type": "address"
        },
        {
          "indexed": true,
          "internalType": "uint256",
          "name": "tokenId",
          "type": "uint256"
        },
        {
          "indexed": false,
          "internalType": "address",
          "name": "seller",
          "type": "address"
        },
        {
          "indexed": false,
          "internalType": "address",
          "name": "owner",
          "type": "address"
        },
        {
          "indexed": false,
          "internalType": "address",
          "name": "creator",
          "type": "address"
        },
        {
          "indexed": false,
          "internalType": "uint256",
          "name": "price",
          "type": "uint256"
        },
        {
          "indexed": false,
          "internalType": "bool",
          "name": "sold",
          "type": "bool"
        },
        {
          "indexed": false,
          "internalType": "string",
          "name": "tokenUri",
          "type": "string"
        }
      ],
      "name": "MarketItemCreated",
      "type": "event"
    },
    {
      "anonymous": false,
      "inputs": [
        {
          "indexed": true,
          "internalType": "uint256",
          "name": "itemId",
          "type": "uint256"
        },
        {
          "indexed": true,
          "internalType": "address",
          "name": "nftContract",
          "type": "address"
        },
        {
          "indexed": true,
          "internalType": "uint256",
          "name": "tokenId",
          "type": "uint256"
        },
        {
          "indexed": false,
          "internalType": "address",
          "name": "seller",
          "type": "address"
        },
        {
          "indexed": false,
          "internalType": "address",
          "name": "owner",
          "type": "address"
        },
        {
          "indexed": false,
          "internalType": "address",
          "name": "creator",
          "type": "address"
        },
        {
          "indexed": false,
          "internalType": "uint256",
          "name": "price",
          "type": "uint256"
        },
        {
          "indexed": false,
          "internalType": "bool",
          "name": "sold",
          "type": "bool"
        }
      ],
      "name": "MarketItemListed",
      "type": "event"
    },
    {
      "anonymous": false,
      "inputs": [
        {
          "indexed": true,
          "internalType": "uint256",
          "name": "itemId",
          "type": "uint256"
        },
        {
          "indexed": true,
          "internalType": "address",
          "name": "nftContract",
          "type": "address"
        },
        {
          "indexed": true,
          "internalType": "uint256",
          "name": "tokenId",
          "type": "uint256"
        },
        {
          "indexed": false,
          "internalType": "address",
          "name": "seller",
          "type": "address"
        },
        {
          "indexed": false,
          "internalType": "address",
          "name": "owner",
          "type": "address"
        },
        {
          "indexed": false,
          "internalType": "address",
          "name": "creator",
          "type": "address"
        },
        {
          "indexed": false,
          "internalType": "uint256",
          "name": "price",
          "type": "uint256"
        },
        {
          "indexed": false,
          "internalType": "bool",
          "name": "sold",
          "type": "bool"
        }
      ],
      "name": "MarketItemPriceChanged",
      "type": "event"
    },
    {
      "anonymous": false,
      "inputs": [
        {
          "indexed": true,
          "internalType": "uint256",
          "name": "itemId",
          "type": "uint256"
        },
        {
          "indexed": false,
          "internalType": "address",
          "name": "nftContract",
          "type": "address"
        },
        {
          "indexed": true,
          "internalType": "uint256",
          "name": "tokenId",
          "type": "uint256"
        },
        {
          "indexed": true,
          "internalType": "address",
          "name": "seller",
          "type": "address"
        },
        {
          "indexed": false,
          "internalType": "address",
          "name": "owner",
          "type": "address"
        },
        {
          "indexed": false,
          "internalType": "address",
          "name": "creator",
          "type": "address"
        },
        {
          "indexed": false,
          "internalType": "uint256",
          "name": "price",
          "type": "uint256"
        },
        {
          "indexed": false,
          "internalType": "bool",
          "name": "sold",
          "type": "bool"
        },
        {
          "indexed": false,
          "internalType": "address",
          "name": "marketAddress",
          "type": "address"
        }
      ],
      "name": "MarketItemSold",
      "type": "event"
    },
    {
      "anonymous": false,
      "inputs": [
        {
          "indexed": true,
          "internalType": "address",
          "name": "previousOwner",
          "type": "address"
        },
        {
          "indexed": true,
          "internalType": "address",
          "name": "newOwner",
          "type": "address"
        }
      ],
      "name": "OwnershipTransferred",
      "type": "event"
    },
    {
      "inputs": [
        {
          "components": [
            {
              "internalType": "uint256",
              "name": "itemId",
              "type": "uint256"
            },
            {
              "internalType": "address",
              "name": "nftContract",
              "type": "address"
            },
            {
              "internalType": "uint256",
              "name": "tokenId",
              "type": "uint256"
            },
            {
              "internalType": "address payable",
              "name": "seller",
              "type": "address"
            },
            {
              "internalType": "address payable",
              "name": "owner",
              "type": "address"
            },
            {
              "internalType": "address payable",
              "name": "creator",
              "type": "address"
            },
            {
              "internalType": "uint256",
              "name": "price",
              "type": "uint256"
            },
            {
              "internalType": "bool",
              "name": "sold",
              "type": "bool"
            }
          ],
          "internalType": "struct NFTMarket.MarketItem",
          "name": "marketItem",
          "type": "tuple"
        }
      ],
      "name": "_getCreator",
      "outputs": [
        {
          "internalType": "address",
          "name": "",
          "type": "address"
        }
      ],
      "stateMutability": "pure",
      "type": "function"
    },
    {
      "inputs": [
        {
          "components": [
            {
              "internalType": "uint256",
              "name": "itemId",
              "type": "uint256"
            },
            {
              "internalType": "address",
              "name": "nftContract",
              "type": "address"
            },
            {
              "internalType": "uint256",
              "name": "tokenId",
              "type": "uint256"
            },
            {
              "internalType": "address payable",
              "name": "seller",
              "type": "address"
            },
            {
              "internalType": "address payable",
              "name": "owner",
              "type": "address"
            },
            {
              "internalType": "address payable",
              "name": "creator",
              "type": "address"
            },
            {
              "internalType": "uint256",
              "name": "price",
              "type": "uint256"
            },
            {
              "internalType": "bool",
              "name": "sold",
              "type": "bool"
            }
          ],
          "internalType": "struct NFTMarket.MarketItem",
          "name": "marketItem",
          "type": "tuple"
        }
      ],
      "name": "_getOwner",
      "outputs": [
        {
          "internalType": "address",
          "name": "",
          "type": "address"
        }
      ],
      "stateMutability": "pure",
      "type": "function"
    },
    {
      "inputs": [
        {
          "components": [
            {
              "internalType": "uint256",
              "name": "itemId",
              "type": "uint256"
            },
            {
              "internalType": "address",
              "name": "nftContract",
              "type": "address"
            },
            {
              "internalType": "uint256",
              "name": "tokenId",
              "type": "uint256"
            },
            {
              "internalType": "address payable",
              "name": "seller",
              "type": "address"
            },
            {
              "internalType": "address payable",
              "name": "owner",
              "type": "address"
            },
            {
              "internalType": "address payable",
              "name": "creator",
              "type": "address"
            },
            {
              "internalType": "uint256",
              "name": "price",
              "type": "uint256"
            },
            {
              "internalType": "bool",
              "name": "sold",
              "type": "bool"
            }
          ],
          "internalType": "struct NFTMarket.MarketItem",
          "name": "marketItem",
          "type": "tuple"
        }
      ],
      "name": "_getSeller",
      "outputs": [
        {
          "internalType": "address",
          "name": "",
          "type": "address"
        }
      ],
      "stateMutability": "pure",
      "type": "function"
    },
    {
      "inputs": [
        {
          "internalType": "address",
          "name": "nftContract",
          "type": "address"
        },
        {
          "internalType": "uint256",
          "name": "tokenId",
          "type": "uint256"
        },
        {
          "internalType": "uint256",
          "name": "price",
          "type": "uint256"
        }
      ],
      "name": "createMarketItem",
      "outputs": [],
      "stateMutability": "payable",
      "type": "function"
    },
    {
      "inputs": [
        {
          "internalType": "address",
          "name": "nftContract",
          "type": "address"
        },
        {
          "internalType": "uint256",
          "name": "itemId",
          "type": "uint256"
        }
      ],
      "name": "createMarketSale",
      "outputs": [],
      "stateMutability": "payable",
      "type": "function"
    },
    {
      "inputs": [
        {
          "internalType": "uint256",
          "name": "itemId",
          "type": "uint256"
        }
      ],
      "name": "fetchItemForId",
      "outputs": [
        {
          "components": [
            {
              "internalType": "uint256",
              "name": "itemId",
              "type": "uint256"
            },
            {
              "internalType": "address",
              "name": "nftContract",
              "type": "address"
            },
            {
              "internalType": "uint256",
              "name": "tokenId",
              "type": "uint256"
            },
            {
              "internalType": "address payable",
              "name": "seller",
              "type": "address"
            },
            {
              "internalType": "address payable",
              "name": "owner",
              "type": "address"
            },
            {
              "internalType": "address payable",
              "name": "creator",
              "type": "address"
            },
            {
              "internalType": "uint256",
              "name": "price",
              "type": "uint256"
            },
            {
              "internalType": "bool",
              "name": "sold",
              "type": "bool"
            }
          ],
          "internalType": "struct NFTMarket.MarketItem",
          "name": "",
          "type": "tuple"
        }
      ],
      "stateMutability": "view",
      "type": "function"
    },
    {
      "inputs": [],
      "name": "fetchItemsCreated",
      "outputs": [
        {
          "components": [
            {
              "internalType": "uint256",
              "name": "itemId",
              "type": "uint256"
            },
            {
              "internalType": "address",
              "name": "nftContract",
              "type": "address"
            },
            {
              "internalType": "uint256",
              "name": "tokenId",
              "type": "uint256"
            },
            {
              "internalType": "address payable",
              "name": "seller",
              "type": "address"
            },
            {
              "internalType": "address payable",
              "name": "owner",
              "type": "address"
            },
            {
              "internalType": "address payable",
              "name": "creator",
              "type": "address"
            },
            {
              "internalType": "uint256",
              "name": "price",
              "type": "uint256"
            },
            {
              "internalType": "bool",
              "name": "sold",
              "type": "bool"
            }
          ],
          "internalType": "struct NFTMarket.MarketItem[]",
          "name": "",
          "type": "tuple[]"
        }
      ],
      "stateMutability": "view",
      "type": "function"
    },
    {
      "inputs": [
        {
          "internalType": "address",
          "name": "addr",
          "type": "address"
        }
      ],
      "name": "fetchItemsCreatedBy",
      "outputs": [
        {
          "components": [
            {
              "internalType": "uint256",
              "name": "itemId",
              "type": "uint256"
            },
            {
              "internalType": "address",
              "name": "nftContract",
              "type": "address"
            },
            {
              "internalType": "uint256",
              "name": "tokenId",
              "type": "uint256"
            },
            {
              "internalType": "address payable",
              "name": "seller",
              "type": "address"
            },
            {
              "internalType": "address payable",
              "name": "owner",
              "type": "address"
            },
            {
              "internalType": "address payable",
              "name": "creator",
              "type": "address"
            },
            {
              "internalType": "uint256",
              "name": "price",
              "type": "uint256"
            },
            {
              "internalType": "bool",
              "name": "sold",
              "type": "bool"
            }
          ],
          "internalType": "struct NFTMarket.MarketItem[]",
          "name": "",
          "type": "tuple[]"
        }
      ],
      "stateMutability": "view",
      "type": "function"
    },
    {
      "inputs": [],
      "name": "fetchItemsListed",
      "outputs": [
        {
          "components": [
            {
              "internalType": "uint256",
              "name": "itemId",
              "type": "uint256"
            },
            {
              "internalType": "address",
              "name": "nftContract",
              "type": "address"
            },
            {
              "internalType": "uint256",
              "name": "tokenId",
              "type": "uint256"
            },
            {
              "internalType": "address payable",
              "name": "seller",
              "type": "address"
            },
            {
              "internalType": "address payable",
              "name": "owner",
              "type": "address"
            },
            {
              "internalType": "address payable",
              "name": "creator",
              "type": "address"
            },
            {
              "internalType": "uint256",
              "name": "price",
              "type": "uint256"
            },
            {
              "internalType": "bool",
              "name": "sold",
              "type": "bool"
            }
          ],
          "internalType": "struct NFTMarket.MarketItem[]",
          "name": "",
          "type": "tuple[]"
        }
      ],
      "stateMutability": "view",
      "type": "function"
    },
    {
      "inputs": [
        {
          "internalType": "address",
          "name": "addr",
          "type": "address"
        }
      ],
      "name": "fetchItemsListedBy",
      "outputs": [
        {
          "components": [
            {
              "internalType": "uint256",
              "name": "itemId",
              "type": "uint256"
            },
            {
              "internalType": "address",
              "name": "nftContract",
              "type": "address"
            },
            {
              "internalType": "uint256",
              "name": "tokenId",
              "type": "uint256"
            },
            {
              "internalType": "address payable",
              "name": "seller",
              "type": "address"
            },
            {
              "internalType": "address payable",
              "name": "owner",
              "type": "address"
            },
            {
              "internalType": "address payable",
              "name": "creator",
              "type": "address"
            },
            {
              "internalType": "uint256",
              "name": "price",
              "type": "uint256"
            },
            {
              "internalType": "bool",
              "name": "sold",
              "type": "bool"
            }
          ],
          "internalType": "struct NFTMarket.MarketItem[]",
          "name": "",
          "type": "tuple[]"
        }
      ],
      "stateMutability": "view",
      "type": "function"
    },
    {
      "inputs": [
        {
          "internalType": "address",
          "name": "addr",
          "type": "address"
        }
      ],
      "name": "fetchItemsOwnedBy",
      "outputs": [
        {
          "components": [
            {
              "internalType": "uint256",
              "name": "itemId",
              "type": "uint256"
            },
            {
              "internalType": "address",
              "name": "nftContract",
              "type": "address"
            },
            {
              "internalType": "uint256",
              "name": "tokenId",
              "type": "uint256"
            },
            {
              "internalType": "address payable",
              "name": "seller",
              "type": "address"
            },
            {
              "internalType": "address payable",
              "name": "owner",
              "type": "address"
            },
            {
              "internalType": "address payable",
              "name": "creator",
              "type": "address"
            },
            {
              "internalType": "uint256",
              "name": "price",
              "type": "uint256"
            },
            {
              "internalType": "bool",
              "name": "sold",
              "type": "bool"
            }
          ],
          "internalType": "struct NFTMarket.MarketItem[]",
          "name": "",
          "type": "tuple[]"
        }
      ],
      "stateMutability": "view",
      "type": "function"
    },
    {
      "inputs": [],
      "name": "fetchMarketItems",
      "outputs": [
        {
          "components": [
            {
              "internalType": "uint256",
              "name": "itemId",
              "type": "uint256"
            },
            {
              "internalType": "address",
              "name": "nftContract",
              "type": "address"
            },
            {
              "internalType": "uint256",
              "name": "tokenId",
              "type": "uint256"
            },
            {
              "internalType": "address payable",
              "name": "seller",
              "type": "address"
            },
            {
              "internalType": "address payable",
              "name": "owner",
              "type": "address"
            },
            {
              "internalType": "address payable",
              "name": "creator",
              "type": "address"
            },
            {
              "internalType": "uint256",
              "name": "price",
              "type": "uint256"
            },
            {
              "internalType": "bool",
              "name": "sold",
              "type": "bool"
            }
          ],
          "internalType": "struct NFTMarket.MarketItem[]",
          "name": "",
          "type": "tuple[]"
        }
      ],
      "stateMutability": "view",
      "type": "function"
    },
    {
      "inputs": [],
      "name": "fetchMyNFTs",
      "outputs": [
        {
          "components": [
            {
              "internalType": "uint256",
              "name": "itemId",
              "type": "uint256"
            },
            {
              "internalType": "address",
              "name": "nftContract",
              "type": "address"
            },
            {
              "internalType": "uint256",
              "name": "tokenId",
              "type": "uint256"
            },
            {
              "internalType": "address payable",
              "name": "seller",
              "type": "address"
            },
            {
              "internalType": "address payable",
              "name": "owner",
              "type": "address"
            },
            {
              "internalType": "address payable",
              "name": "creator",
              "type": "address"
            },
            {
              "internalType": "uint256",
              "name": "price",
              "type": "uint256"
            },
            {
              "internalType": "bool",
              "name": "sold",
              "type": "bool"
            }
          ],
          "internalType": "struct NFTMarket.MarketItem[]",
          "name": "",
          "type": "tuple[]"
        }
      ],
      "stateMutability": "view",
      "type": "function"
    },
    {
      "inputs": [],
      "name": "getBalance",
      "outputs": [
        {
          "internalType": "uint256",
          "name": "",
          "type": "uint256"
        }
      ],
      "stateMutability": "view",
      "type": "function"
    },
    {
      "inputs": [],
      "name": "getListingPrice",
      "outputs": [
        {
          "internalType": "uint256",
          "name": "",
          "type": "uint256"
        }
      ],
      "stateMutability": "view",
      "type": "function"
    },
    {
      "inputs": [],
      "name": "initialize",
      "outputs": [],
      "stateMutability": "nonpayable",
      "type": "function"
    },
    {
      "inputs": [
        {
          "internalType": "address",
          "name": "nftContract",
          "type": "address"
        },
        {
          "internalType": "uint256",
          "name": "itemId",
          "type": "uint256"
        },
        {
          "internalType": "uint256",
          "name": "price",
          "type": "uint256"
        }
      ],
      "name": "listMarketItem",
      "outputs": [],
      "stateMutability": "payable",
      "type": "function"
    },
    {
      "inputs": [
        {
          "internalType": "address",
          "name": "operator",
          "type": "address"
        },
        {
          "internalType": "address",
          "name": "from",
          "type": "address"
        },
        {
          "internalType": "uint256",
          "name": "tokenId",
          "type": "uint256"
        },
        {
          "internalType": "bytes",
          "name": "data",
          "type": "bytes"
        }
      ],
      "name": "onERC721Received",
      "outputs": [
        {
          "internalType": "bytes4",
          "name": "",
          "type": "bytes4"
        }
      ],
      "stateMutability": "pure",
      "type": "function"
    },
    {
      "inputs": [],
      "name": "owner",
      "outputs": [
        {
          "internalType": "address",
          "name": "",
          "type": "address"
        }
      ],
      "stateMutability": "view",
      "type": "function"
    },
    {
      "inputs": [],
      "name": "renounceOwnership",
      "outputs": [],
      "stateMutability": "nonpayable",
      "type": "function"
    },
    {
      "inputs": [
        {
          "internalType": "uint256",
          "name": "price",
          "type": "uint256"
        }
      ],
      "name": "setListingPrice",
      "outputs": [],
      "stateMutability": "nonpayable",
      "type": "function"
    },
    {
      "inputs": [
        {
          "internalType": "address",
          "name": "newOwner",
          "type": "address"
        }
      ],
      "name": "transferOwnership",
      "outputs": [],
      "stateMutability": "nonpayable",
      "type": "function"
    },
    {
      "inputs": [
        {
          "internalType": "address",
          "name": "nftContract",
          "type": "address"
        },
        {
          "internalType": "uint256",
          "name": "itemId",
          "type": "uint256"
        },
        {
          "internalType": "uint256",
          "name": "price",
          "type": "uint256"
        }
      ],
      "name": "updateMarketItemPrice",
      "outputs": [],
      "stateMutability": "payable",
      "type": "function"
    }
  ],
  "bytecode": "0x608060405234801561001057600080fd5b50611c62806100206000396000f3fe60806040526004361061013f5760003560e01c80637c726b69116100b6578063af23b6231161006f578063af23b62314610368578063c23b139e14610388578063c51aae211461039b578063cd93ba9f146103c8578063f064c32e146103ea578063f2fde38b146103ff57600080fd5b80637c726b69146102995780638129fc1c146102b9578063872d06f1146102ce5780638da5cb5b14610308578063921ba23f1461032657806397041a301461034857600080fd5b8063202e374011610108578063202e374014610214578063213c4e1a1461022957806345f8fa801461023c5780634da322f91461025157806358eb2df514610271578063715018a61461028457600080fd5b8062fe9325146101445780630f08efe01461015957806312065fe01461018457806312e85585146101a1578063150b7a02146101b6575b600080fd5b6101576101523660046116c7565b61041f565b005b34801561016557600080fd5b5061016e6105f7565b60405161017b9190611938565b60405180910390f35b34801561019057600080fd5b50475b60405190815260200161017b565b3480156101ad57600080fd5b50609954610193565b3480156101c257600080fd5b506101fb6101d1366004611602565b7f150b7a023d4804d13e8c85fb27262cb750cf6ba9f9dd3bb30d90f482ceeb4b1f95945050505050565b6040516001600160e01b0319909116815260200161017b565b34801561022057600080fd5b5061016e61060d565b6101576102373660046116c7565b61061e565b34801561024857600080fd5b5061016e6107be565b34801561025d57600080fd5b5061016e61026c3660046115ca565b6107cf565b61015761027f3660046116c7565b6107e6565b34801561029057600080fd5b50610157610a74565b3480156102a557600080fd5b506101576102b4366004611858565b610aaa565b3480156102c557600080fd5b50610157610ad9565b3480156102da57600080fd5b506102f06102e93660046117a4565b60a0015190565b6040516001600160a01b03909116815260200161017b565b34801561031457600080fd5b506065546001600160a01b03166102f0565b34801561033257600080fd5b506102f06103413660046117a4565b6080015190565b34801561035457600080fd5b5061016e6103633660046115ca565b610b58565b34801561037457600080fd5b5061016e6103833660046115ca565b610b69565b61015761039636600461169c565b610b7a565b3480156103a757600080fd5b506103bb6103b6366004611858565b610ddc565b60405161017b9190611abc565b3480156103d457600080fd5b506102f06103e33660046117a4565b6060015190565b3480156103f657600080fd5b5061016e610eb0565b34801561040b57600080fd5b5061015761041a3660046115ca565b610ec1565b6002600154141561044b5760405162461bcd60e51b815260040161044290611a4e565b60405180910390fd5b60026001558061046d5760405162461bcd60e51b815260040161044290611a85565b6000828152609a6020526040902060038101546001600160a01b031633146104fd5760405162461bcd60e51b815260206004820152603b60248201527f43616c6c6572206973206e6f7420746865206974656d27732073656c6c65722060448201527f616e642063616e6e6f74206368616e67652074686520707269636500000000006064820152608401610442565b60048101546001600160a01b031630146105705760405162461bcd60e51b815260206004820152602e60248201527f596f752063616e206f6e6c792075706461746520746865207072696365206f6660448201526d2061206c6973746564206974656d60901b6064820152608401610442565b600681018290556002810154600382015460048301546005840154604080516001600160a01b03948516815292841660208401529083169082015260608101859052600060808201529086169085907f224db4aa2487531e0a283572ffec5998ee4e2b10926699a527fd6809089dfc1a9060a0015b60405180910390a45050600180555050565b6060610608308063921ba23f610f59565b905090565b6060610608333063921ba23f610f59565b600260015414156106415760405162461bcd60e51b815260040161044290611a4e565b6002600155806106635760405162461bcd60e51b815260040161044290611a85565b60995434146106845760405162461bcd60e51b815260040161044290611a0a565b6000828152609a602052604090206004810180546001600160a01b03199081163017909155600682018390556003820180549091163317905560078101805460ff191690556106d3609861123b565b60038101546106eb906001600160a01b031634611292565b6002810154604051632142170760e11b815233600482015230602482015260448101919091526001600160a01b038516906342842e0e90606401600060405180830381600087803b15801561073f57600080fd5b505af1158015610753573d6000803e3d6000fd5b5050505060028101546005820154604080513381523060208201526001600160a01b039283169181019190915260608101859052600060808201529086169085907f340a50903276405812cc0380be55afc1795ee360fee4b89710132f9370c6ff009060a0016105e5565b6060610608333063cd93ba9f610f59565b60606107e0823063921ba23f610f59565b92915050565b600260015414156108095760405162461bcd60e51b815260040161044290611a4e565b60026001558061082b5760405162461bcd60e51b815260040161044290611a85565b609954341461084c5760405162461bcd60e51b815260040161044290611a0a565b61085a609780546001019055565b600061086560975490565b60408051610100810182528281526001600160a01b0387811660208084018281528486018a81523360608701818152306080890190815260a0890192835260c089018d8152600060e08b018181528d8252609a9098528b81209a518b55955160018b0180546001600160a01b0319908116928c16929092179055945160028b0155915160038a0180548616918a16919091179055516004808a0180548616928a169290921790915591516005890180549094169716969096179091559351600686015590516007909401805460ff191694151594909417909355925163c87b56dd60e01b81529081018790529293509163c87b56dd9060240160006040518083038186803b15801561097657600080fd5b505afa15801561098a573d6000803e3d6000fd5b505050506040513d6000823e601f3d908101601f191682016040526109b291908101906116fb565b604051632142170760e11b8152336004820152306024820152604481018690529091506001600160a01b038616906342842e0e90606401600060405180830381600087803b158015610a0357600080fd5b505af1158015610a17573d6000803e3d6000fd5b5050505083856001600160a01b0316837fa83c594bab51dafaa1975169861a00a9037746f60757047d35d126e2652e754a33303389600089604051610a61969594939291906118d2565b60405180910390a4505060018055505050565b6065546001600160a01b03163314610a9e5760405162461bcd60e51b8152600401610442906119d5565b610aa860006113b0565b565b6065546001600160a01b03163314610ad45760405162461bcd60e51b8152600401610442906119d5565b609955565b600054610100900460ff1680610af2575060005460ff16155b610b0e5760405162461bcd60e51b815260040161044290611987565b600054610100900460ff16158015610b30576000805461ffff19166101011790555b610b38611402565b6658d15e176280006099558015610b55576000805461ff00191690555b50565b60606107e0823063cd93ba9f610f59565b60606107e0823063872d06f1610f59565b60026001541415610b9d5760405162461bcd60e51b815260040161044290611a4e565b600260018190556000828152609a602052604090206006810154910154348214610c31576040805162461bcd60e51b81526020600482015260248101919091527f506c65617365207375626d6974207468652061736b696e67207072696365206960448201527f6e206f7264657220746f20636f6d706c657465207468652070757263686173656064820152608401610442565b6000610c496002610c4334606461147d565b90611490565b90506000610c578234611b89565b6000868152609a60205260409020600301549091506001600160a01b0316610c7f8183611292565b604051632142170760e11b8152306004820152336024820152604481018590526001600160a01b038816906342842e0e90606401600060405180830381600087803b158015610ccd57600080fd5b505af1158015610ce1573d6000803e3d6000fd5b5050506000878152609a602052604090206004810180546001600160a01b031990811633179091556003820180549091169055600701805460ff1916600117905550610d31609880546001019055565b606554610d47906001600160a01b031647611292565b6000868152609a60209081526040918290206002810154600482015460059092015484516001600160a01b038d811682529384169481019490945282168385015260608301899052600160808401523060a08401529251908416929189917f17647858a59d66933ee49e84163d436059a625fe1d8558dc8772ce11df52727a9181900360c00190a45050600180555050505050565b610de4611566565b609754821115610e2d5760405162461bcd60e51b81526020600482015260146024820152731a5d195b5259081b5d5cdd081899481d985b1a5960621b6044820152606401610442565b506000908152609a60209081526040918290208251610100810184528154815260018201546001600160a01b0390811693820193909352600282015493810193909352600381015482166060840152600481015482166080840152600581015490911660a0830152600681015460c08301526007015460ff16151560e082015290565b6060610608333063872d06f1610f59565b6065546001600160a01b03163314610eeb5760405162461bcd60e51b8152600401610442906119d5565b6001600160a01b038116610f505760405162461bcd60e51b815260206004820152602660248201527f4f776e61626c653a206e6577206f776e657220697320746865207a65726f206160448201526564647265737360d01b6064820152608401610442565b610b55816113b0565b60606000610f6660975490565b905060008060005b8381101561103a576001600160a01b0388168787609a6000610f91866001611b32565b81526020019081526020016000206040518263ffffffff1660e01b8152600401610fbb9190611acb565b60206040518083038186803b158015610fd357600080fd5b505afa158015610fe7573d6000803e3d6000fd5b505050506040513d601f19601f8201168201806040525081019061100b91906115e6565b6001600160a01b0316141561102857611025600184611b32565b92505b8061103281611bd0565b915050610f6e565b5060008267ffffffffffffffff81111561106457634e487b7160e01b600052604160045260246000fd5b60405190808252806020026020018201604052801561109d57816020015b61108a611566565b8152602001906001900390816110825790505b50905060005b8481101561122f576001600160a01b0389168888609a60006110c6866001611b32565b81526020019081526020016000206040518263ffffffff1660e01b81526004016110f09190611acb565b60206040518083038186803b15801561110857600080fd5b505afa15801561111c573d6000803e3d6000fd5b505050506040513d601f19601f8201168201806040525081019061114091906115e6565b6001600160a01b0316141561121d57600061115c826001611b32565b6000818152609a60209081526040918290208251610100810184528154815260018201546001600160a01b0390811693820193909352600282015493810193909352600381015482166060840152600481015482166080840152600581015490911660a0830152600681015460c0830152600781015460ff16151560e083015285519293509185908790811061120257634e487b7160e01b600052603260045260246000fd5b6020908102919091010152611218600186611b32565b945050505b8061122781611bd0565b9150506110a3565b50979650505050505050565b80548061128a5760405162461bcd60e51b815260206004820152601b60248201527f436f756e7465723a2064656372656d656e74206f766572666c6f7700000000006044820152606401610442565b600019019055565b804710156112e25760405162461bcd60e51b815260206004820152601d60248201527f416464726573733a20696e73756666696369656e742062616c616e63650000006044820152606401610442565b6000826001600160a01b03168260405160006040518083038185875af1925050503d806000811461132f576040519150601f19603f3d011682016040523d82523d6000602084013e611334565b606091505b50509050806113ab5760405162461bcd60e51b815260206004820152603a60248201527f416464726573733a20756e61626c6520746f2073656e642076616c75652c207260448201527f6563697069656e74206d617920686176652072657665727465640000000000006064820152608401610442565b505050565b606580546001600160a01b038381166001600160a01b0319831681179093556040519116919082907f8be0079c531659141344cd1fd0a4f28419497f9722a3daafe3b4186f6b6457e090600090a35050565b600054610100900460ff168061141b575060005460ff16155b6114375760405162461bcd60e51b815260040161044290611987565b600054610100900460ff16158015611459576000805461ffff19166101011790555b61146161149c565b611469611506565b8015610b55576000805461ff001916905550565b60006114898284611b4a565b9392505050565b60006114898284611b6a565b600054610100900460ff16806114b5575060005460ff16155b6114d15760405162461bcd60e51b815260040161044290611987565b600054610100900460ff16158015611469576000805461ffff19166101011790558015610b55576000805461ff001916905550565b600054610100900460ff168061151f575060005460ff16155b61153b5760405162461bcd60e51b815260040161044290611987565b600054610100900460ff1615801561155d576000805461ffff19166101011790555b611469336113b0565b6040805161010081018252600080825260208201819052918101829052606081018290526080810182905260a0810182905260c0810182905260e081019190915290565b80356115b581611c17565b919050565b803580151581146115b557600080fd5b6000602082840312156115db578081fd5b813561148981611c17565b6000602082840312156115f7578081fd5b815161148981611c17565b600080600080600060808688031215611619578081fd5b853561162481611c17565b9450602086013561163481611c17565b935060408601359250606086013567ffffffffffffffff80821115611657578283fd5b818801915088601f83011261166a578283fd5b813581811115611678578384fd5b896020828501011115611689578384fd5b9699959850939650602001949392505050565b600080604083850312156116ae578182fd5b82356116b981611c17565b946020939093013593505050565b6000806000606084860312156116db578283fd5b83356116e681611c17565b95602085013595506040909401359392505050565b60006020828403121561170c578081fd5b815167ffffffffffffffff80821115611723578283fd5b818401915084601f830112611736578283fd5b81518181111561174857611748611c01565b604051601f8201601f19908116603f0116810190838211818310171561177057611770611c01565b81604052828152876020848701011115611788578586fd5b611799836020830160208801611ba0565b979650505050505050565b60006101008083850312156117b7578182fd5b6040519081019067ffffffffffffffff821181831017156117da576117da611c01565b8160405283358152602084013591506117f282611c17565b8160208201526040840135604082015261180e606085016115aa565b606082015261181f608085016115aa565b608082015261183060a085016115aa565b60a082015260c084013560c082015261184b60e085016115ba565b60e0820152949350505050565b600060208284031215611869578081fd5b5035919050565b80518252602081015160018060a01b038082166020850152604083015160408501528060608401511660608501528060808401511660808501528060a08401511660a0850152505060c081015160c083015260e0810151151560e08301525050565b600060018060a01b0380891683528088166020840152808716604084015250846060830152831515608083015260c060a083015282518060c084015261191f8160e0850160208701611ba0565b601f01601f19169190910160e001979650505050505050565b6020808252825182820181905260009190848201906040850190845b8181101561197b57611967838551611870565b928401926101009290920191600101611954565b50909695505050505050565b6020808252602e908201527f496e697469616c697a61626c653a20636f6e747261637420697320616c72656160408201526d191e481a5b9a5d1a585b1a5e995960921b606082015260800190565b6020808252818101527f4f776e61626c653a2063616c6c6572206973206e6f7420746865206f776e6572604082015260600190565b60208082526024908201527f5072696365206d75737420626520657175616c20746f206c697374696e6720706040820152637269636560e01b606082015260800190565b6020808252601f908201527f5265656e7472616e637947756172643a207265656e7472616e742063616c6c00604082015260600190565b6020808252601c908201527f5072696365206d757374206265206174206c6561737420312077656900000000604082015260600190565b61010081016107e08284611870565b8154815260018201546001600160a01b0390811660208301526002830154604083015260038301548116606083015260048301548116608083015260058301541660a0820152600682015460c082015260079091015460ff16151560e08201526101000190565b60008219821115611b4557611b45611beb565b500190565b600082611b6557634e487b7160e01b81526012600452602481fd5b500490565b6000816000190483118215151615611b8457611b84611beb565b500290565b600082821015611b9b57611b9b611beb565b500390565b60005b83811015611bbb578181015183820152602001611ba3565b83811115611bca576000848401525b50505050565b6000600019821415611be457611be4611beb565b5060010190565b634e487b7160e01b600052601160045260246000fd5b634e487b7160e01b600052604160045260246000fd5b6001600160a01b0381168114610b5557600080fdfea2646970667358221220e8991eac62f2f6f5e68ebc14981b2511ac95d50e424826e9f5a92c2f48cb177164736f6c63430008040033",
  "linkReferences": {},
  "deployedLinkReferences": {}
}