{
  "_format": "hh-sol-artifact-1",
  "contractName": "NFTMarket",
  "sourceName": "contracts/Market.sol",
  "abi": [
    {
      "anonymous": false,
      "inputs": [
        {
          "indexed": true,
          "internalType": "uint256",
          "name": "itemId",
          "type": "uint256"
        },
        {
          "indexed": true,
          "internalType": "address",
          "name": "nftContract",
          "type": "address"
        },
        {
          "indexed": true,
          "internalType": "uint256",
          "name": "tokenId",
          "type": "uint256"
        },
        {
          "indexed": false,
          "internalType": "address",
          "name": "seller",
          "type": "address"
        },
        {
          "indexed": false,
          "internalType": "address",
          "name": "owner",
          "type": "address"
        },
        {
          "indexed": false,
          "internalType": "address",
          "name": "creator",
          "type": "address"
        },
        {
          "indexed": false,
          "internalType": "uint256",
          "name": "price",
          "type": "uint256"
        },
        {
          "indexed": false,
          "internalType": "bool",
          "name": "sold",
          "type": "bool"
        },
        {
          "indexed": false,
          "internalType": "string",
          "name": "tokenUri",
          "type": "string"
        }
      ],
      "name": "MarketItemCreated",
      "type": "event"
    },
    {
      "anonymous": false,
      "inputs": [
        {
          "indexed": true,
          "internalType": "uint256",
          "name": "itemId",
          "type": "uint256"
        },
        {
          "indexed": true,
          "internalType": "address",
          "name": "nftContract",
          "type": "address"
        },
        {
          "indexed": true,
          "internalType": "uint256",
          "name": "tokenId",
          "type": "uint256"
        },
        {
          "indexed": false,
          "internalType": "address",
          "name": "seller",
          "type": "address"
        },
        {
          "indexed": false,
          "internalType": "address",
          "name": "owner",
          "type": "address"
        },
        {
          "indexed": false,
          "internalType": "address",
          "name": "creator",
          "type": "address"
        },
        {
          "indexed": false,
          "internalType": "uint256",
          "name": "price",
          "type": "uint256"
        },
        {
          "indexed": false,
          "internalType": "bool",
          "name": "sold",
          "type": "bool"
        }
      ],
      "name": "MarketItemListed",
      "type": "event"
    },
    {
      "anonymous": false,
      "inputs": [
        {
          "indexed": true,
          "internalType": "uint256",
          "name": "itemId",
          "type": "uint256"
        },
        {
          "indexed": false,
          "internalType": "address",
          "name": "nftContract",
          "type": "address"
        },
        {
          "indexed": true,
          "internalType": "uint256",
          "name": "tokenId",
          "type": "uint256"
        },
        {
          "indexed": true,
          "internalType": "address",
          "name": "seller",
          "type": "address"
        },
        {
          "indexed": false,
          "internalType": "address",
          "name": "owner",
          "type": "address"
        },
        {
          "indexed": false,
          "internalType": "address",
          "name": "creator",
          "type": "address"
        },
        {
          "indexed": false,
          "internalType": "uint256",
          "name": "price",
          "type": "uint256"
        },
        {
          "indexed": false,
          "internalType": "bool",
          "name": "sold",
          "type": "bool"
        },
        {
          "indexed": false,
          "internalType": "address",
          "name": "marketAddress",
          "type": "address"
        }
      ],
      "name": "MarketItemSold",
      "type": "event"
    },
    {
      "anonymous": false,
      "inputs": [
        {
          "indexed": true,
          "internalType": "address",
          "name": "previousOwner",
          "type": "address"
        },
        {
          "indexed": true,
          "internalType": "address",
          "name": "newOwner",
          "type": "address"
        }
      ],
      "name": "OwnershipTransferred",
      "type": "event"
    },
    {
      "inputs": [
        {
          "components": [
            {
              "internalType": "uint256",
              "name": "itemId",
              "type": "uint256"
            },
            {
              "internalType": "address",
              "name": "nftContract",
              "type": "address"
            },
            {
              "internalType": "uint256",
              "name": "tokenId",
              "type": "uint256"
            },
            {
              "internalType": "address payable",
              "name": "seller",
              "type": "address"
            },
            {
              "internalType": "address payable",
              "name": "owner",
              "type": "address"
            },
            {
              "internalType": "address payable",
              "name": "creator",
              "type": "address"
            },
            {
              "internalType": "uint256",
              "name": "price",
              "type": "uint256"
            },
            {
              "internalType": "bool",
              "name": "sold",
              "type": "bool"
            }
          ],
          "internalType": "struct NFTMarket.MarketItem",
          "name": "marketItem",
          "type": "tuple"
        }
      ],
      "name": "_getCreator",
      "outputs": [
        {
          "internalType": "address",
          "name": "",
          "type": "address"
        }
      ],
      "stateMutability": "pure",
      "type": "function"
    },
    {
      "inputs": [
        {
          "components": [
            {
              "internalType": "uint256",
              "name": "itemId",
              "type": "uint256"
            },
            {
              "internalType": "address",
              "name": "nftContract",
              "type": "address"
            },
            {
              "internalType": "uint256",
              "name": "tokenId",
              "type": "uint256"
            },
            {
              "internalType": "address payable",
              "name": "seller",
              "type": "address"
            },
            {
              "internalType": "address payable",
              "name": "owner",
              "type": "address"
            },
            {
              "internalType": "address payable",
              "name": "creator",
              "type": "address"
            },
            {
              "internalType": "uint256",
              "name": "price",
              "type": "uint256"
            },
            {
              "internalType": "bool",
              "name": "sold",
              "type": "bool"
            }
          ],
          "internalType": "struct NFTMarket.MarketItem",
          "name": "marketItem",
          "type": "tuple"
        }
      ],
      "name": "_getOwner",
      "outputs": [
        {
          "internalType": "address",
          "name": "",
          "type": "address"
        }
      ],
      "stateMutability": "pure",
      "type": "function"
    },
    {
      "inputs": [
        {
          "components": [
            {
              "internalType": "uint256",
              "name": "itemId",
              "type": "uint256"
            },
            {
              "internalType": "address",
              "name": "nftContract",
              "type": "address"
            },
            {
              "internalType": "uint256",
              "name": "tokenId",
              "type": "uint256"
            },
            {
              "internalType": "address payable",
              "name": "seller",
              "type": "address"
            },
            {
              "internalType": "address payable",
              "name": "owner",
              "type": "address"
            },
            {
              "internalType": "address payable",
              "name": "creator",
              "type": "address"
            },
            {
              "internalType": "uint256",
              "name": "price",
              "type": "uint256"
            },
            {
              "internalType": "bool",
              "name": "sold",
              "type": "bool"
            }
          ],
          "internalType": "struct NFTMarket.MarketItem",
          "name": "marketItem",
          "type": "tuple"
        }
      ],
      "name": "_getSeller",
      "outputs": [
        {
          "internalType": "address",
          "name": "",
          "type": "address"
        }
      ],
      "stateMutability": "pure",
      "type": "function"
    },
    {
      "inputs": [
        {
          "internalType": "address",
          "name": "nftContract",
          "type": "address"
        },
        {
          "internalType": "uint256",
          "name": "tokenId",
          "type": "uint256"
        },
        {
          "internalType": "uint256",
          "name": "price",
          "type": "uint256"
        }
      ],
      "name": "createMarketItem",
      "outputs": [],
      "stateMutability": "payable",
      "type": "function"
    },
    {
      "inputs": [
        {
          "internalType": "address",
          "name": "nftContract",
          "type": "address"
        },
        {
          "internalType": "uint256",
          "name": "itemId",
          "type": "uint256"
        }
      ],
      "name": "createMarketSale",
      "outputs": [],
      "stateMutability": "payable",
      "type": "function"
    },
    {
      "inputs": [
        {
          "internalType": "uint256",
          "name": "itemId",
          "type": "uint256"
        }
      ],
      "name": "fetchItemForId",
      "outputs": [
        {
          "components": [
            {
              "internalType": "uint256",
              "name": "itemId",
              "type": "uint256"
            },
            {
              "internalType": "address",
              "name": "nftContract",
              "type": "address"
            },
            {
              "internalType": "uint256",
              "name": "tokenId",
              "type": "uint256"
            },
            {
              "internalType": "address payable",
              "name": "seller",
              "type": "address"
            },
            {
              "internalType": "address payable",
              "name": "owner",
              "type": "address"
            },
            {
              "internalType": "address payable",
              "name": "creator",
              "type": "address"
            },
            {
              "internalType": "uint256",
              "name": "price",
              "type": "uint256"
            },
            {
              "internalType": "bool",
              "name": "sold",
              "type": "bool"
            }
          ],
          "internalType": "struct NFTMarket.MarketItem",
          "name": "",
          "type": "tuple"
        }
      ],
      "stateMutability": "view",
      "type": "function"
    },
    {
      "inputs": [],
      "name": "fetchItemsCreated",
      "outputs": [
        {
          "components": [
            {
              "internalType": "uint256",
              "name": "itemId",
              "type": "uint256"
            },
            {
              "internalType": "address",
              "name": "nftContract",
              "type": "address"
            },
            {
              "internalType": "uint256",
              "name": "tokenId",
              "type": "uint256"
            },
            {
              "internalType": "address payable",
              "name": "seller",
              "type": "address"
            },
            {
              "internalType": "address payable",
              "name": "owner",
              "type": "address"
            },
            {
              "internalType": "address payable",
              "name": "creator",
              "type": "address"
            },
            {
              "internalType": "uint256",
              "name": "price",
              "type": "uint256"
            },
            {
              "internalType": "bool",
              "name": "sold",
              "type": "bool"
            }
          ],
          "internalType": "struct NFTMarket.MarketItem[]",
          "name": "",
          "type": "tuple[]"
        }
      ],
      "stateMutability": "view",
      "type": "function"
    },
    {
      "inputs": [
        {
          "internalType": "address",
          "name": "addr",
          "type": "address"
        }
      ],
      "name": "fetchItemsCreatedBy",
      "outputs": [
        {
          "components": [
            {
              "internalType": "uint256",
              "name": "itemId",
              "type": "uint256"
            },
            {
              "internalType": "address",
              "name": "nftContract",
              "type": "address"
            },
            {
              "internalType": "uint256",
              "name": "tokenId",
              "type": "uint256"
            },
            {
              "internalType": "address payable",
              "name": "seller",
              "type": "address"
            },
            {
              "internalType": "address payable",
              "name": "owner",
              "type": "address"
            },
            {
              "internalType": "address payable",
              "name": "creator",
              "type": "address"
            },
            {
              "internalType": "uint256",
              "name": "price",
              "type": "uint256"
            },
            {
              "internalType": "bool",
              "name": "sold",
              "type": "bool"
            }
          ],
          "internalType": "struct NFTMarket.MarketItem[]",
          "name": "",
          "type": "tuple[]"
        }
      ],
      "stateMutability": "view",
      "type": "function"
    },
    {
      "inputs": [],
      "name": "fetchItemsListed",
      "outputs": [
        {
          "components": [
            {
              "internalType": "uint256",
              "name": "itemId",
              "type": "uint256"
            },
            {
              "internalType": "address",
              "name": "nftContract",
              "type": "address"
            },
            {
              "internalType": "uint256",
              "name": "tokenId",
              "type": "uint256"
            },
            {
              "internalType": "address payable",
              "name": "seller",
              "type": "address"
            },
            {
              "internalType": "address payable",
              "name": "owner",
              "type": "address"
            },
            {
              "internalType": "address payable",
              "name": "creator",
              "type": "address"
            },
            {
              "internalType": "uint256",
              "name": "price",
              "type": "uint256"
            },
            {
              "internalType": "bool",
              "name": "sold",
              "type": "bool"
            }
          ],
          "internalType": "struct NFTMarket.MarketItem[]",
          "name": "",
          "type": "tuple[]"
        }
      ],
      "stateMutability": "view",
      "type": "function"
    },
    {
      "inputs": [
        {
          "internalType": "address",
          "name": "addr",
          "type": "address"
        }
      ],
      "name": "fetchItemsListedBy",
      "outputs": [
        {
          "components": [
            {
              "internalType": "uint256",
              "name": "itemId",
              "type": "uint256"
            },
            {
              "internalType": "address",
              "name": "nftContract",
              "type": "address"
            },
            {
              "internalType": "uint256",
              "name": "tokenId",
              "type": "uint256"
            },
            {
              "internalType": "address payable",
              "name": "seller",
              "type": "address"
            },
            {
              "internalType": "address payable",
              "name": "owner",
              "type": "address"
            },
            {
              "internalType": "address payable",
              "name": "creator",
              "type": "address"
            },
            {
              "internalType": "uint256",
              "name": "price",
              "type": "uint256"
            },
            {
              "internalType": "bool",
              "name": "sold",
              "type": "bool"
            }
          ],
          "internalType": "struct NFTMarket.MarketItem[]",
          "name": "",
          "type": "tuple[]"
        }
      ],
      "stateMutability": "view",
      "type": "function"
    },
    {
      "inputs": [
        {
          "internalType": "address",
          "name": "addr",
          "type": "address"
        }
      ],
      "name": "fetchItemsOwnedBy",
      "outputs": [
        {
          "components": [
            {
              "internalType": "uint256",
              "name": "itemId",
              "type": "uint256"
            },
            {
              "internalType": "address",
              "name": "nftContract",
              "type": "address"
            },
            {
              "internalType": "uint256",
              "name": "tokenId",
              "type": "uint256"
            },
            {
              "internalType": "address payable",
              "name": "seller",
              "type": "address"
            },
            {
              "internalType": "address payable",
              "name": "owner",
              "type": "address"
            },
            {
              "internalType": "address payable",
              "name": "creator",
              "type": "address"
            },
            {
              "internalType": "uint256",
              "name": "price",
              "type": "uint256"
            },
            {
              "internalType": "bool",
              "name": "sold",
              "type": "bool"
            }
          ],
          "internalType": "struct NFTMarket.MarketItem[]",
          "name": "",
          "type": "tuple[]"
        }
      ],
      "stateMutability": "view",
      "type": "function"
    },
    {
      "inputs": [],
      "name": "fetchMarketItems",
      "outputs": [
        {
          "components": [
            {
              "internalType": "uint256",
              "name": "itemId",
              "type": "uint256"
            },
            {
              "internalType": "address",
              "name": "nftContract",
              "type": "address"
            },
            {
              "internalType": "uint256",
              "name": "tokenId",
              "type": "uint256"
            },
            {
              "internalType": "address payable",
              "name": "seller",
              "type": "address"
            },
            {
              "internalType": "address payable",
              "name": "owner",
              "type": "address"
            },
            {
              "internalType": "address payable",
              "name": "creator",
              "type": "address"
            },
            {
              "internalType": "uint256",
              "name": "price",
              "type": "uint256"
            },
            {
              "internalType": "bool",
              "name": "sold",
              "type": "bool"
            }
          ],
          "internalType": "struct NFTMarket.MarketItem[]",
          "name": "",
          "type": "tuple[]"
        }
      ],
      "stateMutability": "view",
      "type": "function"
    },
    {
      "inputs": [],
      "name": "fetchMyNFTs",
      "outputs": [
        {
          "components": [
            {
              "internalType": "uint256",
              "name": "itemId",
              "type": "uint256"
            },
            {
              "internalType": "address",
              "name": "nftContract",
              "type": "address"
            },
            {
              "internalType": "uint256",
              "name": "tokenId",
              "type": "uint256"
            },
            {
              "internalType": "address payable",
              "name": "seller",
              "type": "address"
            },
            {
              "internalType": "address payable",
              "name": "owner",
              "type": "address"
            },
            {
              "internalType": "address payable",
              "name": "creator",
              "type": "address"
            },
            {
              "internalType": "uint256",
              "name": "price",
              "type": "uint256"
            },
            {
              "internalType": "bool",
              "name": "sold",
              "type": "bool"
            }
          ],
          "internalType": "struct NFTMarket.MarketItem[]",
          "name": "",
          "type": "tuple[]"
        }
      ],
      "stateMutability": "view",
      "type": "function"
    },
    {
      "inputs": [],
      "name": "getBalance",
      "outputs": [
        {
          "internalType": "uint256",
          "name": "",
          "type": "uint256"
        }
      ],
      "stateMutability": "view",
      "type": "function"
    },
    {
      "inputs": [],
      "name": "getListingPrice",
      "outputs": [
        {
          "internalType": "uint256",
          "name": "",
          "type": "uint256"
        }
      ],
      "stateMutability": "view",
      "type": "function"
    },
    {
      "inputs": [],
      "name": "initialize",
      "outputs": [],
      "stateMutability": "nonpayable",
      "type": "function"
    },
    {
      "inputs": [
        {
          "internalType": "address",
          "name": "nftContract",
          "type": "address"
        },
        {
          "internalType": "uint256",
          "name": "itemId",
          "type": "uint256"
        },
        {
          "internalType": "uint256",
          "name": "price",
          "type": "uint256"
        }
      ],
      "name": "listMarketItem",
      "outputs": [],
      "stateMutability": "payable",
      "type": "function"
    },
    {
      "inputs": [
        {
          "internalType": "address",
          "name": "operator",
          "type": "address"
        },
        {
          "internalType": "address",
          "name": "from",
          "type": "address"
        },
        {
          "internalType": "uint256",
          "name": "tokenId",
          "type": "uint256"
        },
        {
          "internalType": "bytes",
          "name": "data",
          "type": "bytes"
        }
      ],
      "name": "onERC721Received",
      "outputs": [
        {
          "internalType": "bytes4",
          "name": "",
          "type": "bytes4"
        }
      ],
      "stateMutability": "pure",
      "type": "function"
    },
    {
      "inputs": [],
      "name": "owner",
      "outputs": [
        {
          "internalType": "address",
          "name": "",
          "type": "address"
        }
      ],
      "stateMutability": "view",
      "type": "function"
    },
    {
      "inputs": [],
      "name": "renounceOwnership",
      "outputs": [],
      "stateMutability": "nonpayable",
      "type": "function"
    },
    {
      "inputs": [
        {
          "internalType": "uint256",
          "name": "price",
          "type": "uint256"
        }
      ],
      "name": "setListingPrice",
      "outputs": [],
      "stateMutability": "nonpayable",
      "type": "function"
    },
    {
      "inputs": [
        {
          "internalType": "address",
          "name": "newOwner",
          "type": "address"
        }
      ],
      "name": "transferOwnership",
      "outputs": [],
      "stateMutability": "nonpayable",
      "type": "function"
    }
  ],
  "bytecode": "0x608060405234801561001057600080fd5b50611aa9806100206000396000f3fe6080604052600436106101355760003560e01c80638129fc1c116100ab578063af23b6231161006f578063af23b6231461034b578063c23b139e1461036b578063c51aae211461037e578063cd93ba9f146103ab578063f064c32e146103cd578063f2fde38b146103e257600080fd5b80638129fc1c1461029c578063872d06f1146102b15780638da5cb5b146102eb578063921ba23f1461030957806397041a301461032b57600080fd5b8063213c4e1a116100fd578063213c4e1a1461020a57806345f8fa801461021f5780634da322f91461023457806358eb2df514610254578063715018a6146102675780637c726b691461027c57600080fd5b80630f08efe01461013a57806312065fe01461016557806312e8558514610182578063150b7a0214610197578063202e3740146101f5575b600080fd5b34801561014657600080fd5b5061014f610402565b60405161015c91906117b6565b60405180910390f35b34801561017157600080fd5b50475b60405190815260200161015c565b34801561018e57600080fd5b50609954610174565b3480156101a357600080fd5b506101dc6101b2366004611480565b7f150b7a023d4804d13e8c85fb27262cb750cf6ba9f9dd3bb30d90f482ceeb4b1f95945050505050565b6040516001600160e01b0319909116815260200161015c565b34801561020157600080fd5b5061014f610418565b61021d610218366004611545565b610429565b005b34801561022b57600080fd5b5061014f61060c565b34801561024057600080fd5b5061014f61024f366004611448565b61061d565b61021d610262366004611545565b610634565b34801561027357600080fd5b5061021d6108f2565b34801561028857600080fd5b5061021d6102973660046116d6565b610928565b3480156102a857600080fd5b5061021d610957565b3480156102bd57600080fd5b506102d36102cc366004611622565b60a0015190565b6040516001600160a01b03909116815260200161015c565b3480156102f757600080fd5b506065546001600160a01b03166102d3565b34801561031557600080fd5b506102d3610324366004611622565b6080015190565b34801561033757600080fd5b5061014f610346366004611448565b6109d6565b34801561035757600080fd5b5061014f610366366004611448565b6109e7565b61021d61037936600461151a565b6109f8565b34801561038a57600080fd5b5061039e6103993660046116d6565b610c5a565b60405161015c9190611903565b3480156103b757600080fd5b506102d36103c6366004611622565b6060015190565b3480156103d957600080fd5b5061014f610d2e565b3480156103ee57600080fd5b5061021d6103fd366004611448565b610d3f565b6060610413308063921ba23f610dd7565b905090565b6060610413333063921ba23f610dd7565b600260015414156104555760405162461bcd60e51b815260040161044c906118cc565b60405180910390fd5b6002600155806104a75760405162461bcd60e51b815260206004820152601c60248201527f5072696365206d757374206265206174206c6561737420312077656900000000604482015260640161044c565b60995434146104c85760405162461bcd60e51b815260040161044c90611888565b6000828152609a602052604090206004810180546001600160a01b03199081163017909155600682018390556003820180549091163317905560078101805460ff1916905561051760986110b9565b600381015461052f906001600160a01b031634611110565b6002810154604051632142170760e11b815233600482015230602482015260448101919091526001600160a01b038516906342842e0e90606401600060405180830381600087803b15801561058357600080fd5b505af1158015610597573d6000803e3d6000fd5b5050505060028101546005820154604080513381523060208201526001600160a01b0392831681830152606081018690526000608082015290519187169186917f340a50903276405812cc0380be55afc1795ee360fee4b89710132f9370c6ff00919081900360a00190a45050600180555050565b6060610413333063cd93ba9f610dd7565b606061062e823063921ba23f610dd7565b92915050565b600260015414156106575760405162461bcd60e51b815260040161044c906118cc565b6002600155806106a95760405162461bcd60e51b815260206004820152601c60248201527f5072696365206d757374206265206174206c6561737420312077656900000000604482015260640161044c565b60995434146106ca5760405162461bcd60e51b815260040161044c90611888565b6106d8609780546001019055565b60006106e360975490565b60408051610100810182528281526001600160a01b0387811660208084018281528486018a81523360608701818152306080890190815260a0890192835260c089018d8152600060e08b018181528d8252609a9098528b81209a518b55955160018b0180546001600160a01b0319908116928c16929092179055945160028b0155915160038a0180548616918a16919091179055516004808a0180548616928a169290921790915591516005890180549094169716969096179091559351600686015590516007909401805460ff191694151594909417909355925163c87b56dd60e01b81529081018790529293509163c87b56dd9060240160006040518083038186803b1580156107f457600080fd5b505afa158015610808573d6000803e3d6000fd5b505050506040513d6000823e601f3d908101601f191682016040526108309190810190611579565b604051632142170760e11b8152336004820152306024820152604481018690529091506001600160a01b038616906342842e0e90606401600060405180830381600087803b15801561088157600080fd5b505af1158015610895573d6000803e3d6000fd5b5050505083856001600160a01b0316837fa83c594bab51dafaa1975169861a00a9037746f60757047d35d126e2652e754a333033896000896040516108df96959493929190611750565b60405180910390a4505060018055505050565b6065546001600160a01b0316331461091c5760405162461bcd60e51b815260040161044c90611853565b610926600061122e565b565b6065546001600160a01b031633146109525760405162461bcd60e51b815260040161044c90611853565b609955565b600054610100900460ff1680610970575060005460ff16155b61098c5760405162461bcd60e51b815260040161044c90611805565b600054610100900460ff161580156109ae576000805461ffff19166101011790555b6109b6611280565b6658d15e1762800060995580156109d3576000805461ff00191690555b50565b606061062e823063cd93ba9f610dd7565b606061062e823063872d06f1610dd7565b60026001541415610a1b5760405162461bcd60e51b815260040161044c906118cc565b600260018190556000828152609a602052604090206006810154910154348214610aaf576040805162461bcd60e51b81526020600482015260248101919091527f506c65617365207375626d6974207468652061736b696e67207072696365206960448201527f6e206f7264657220746f20636f6d706c65746520746865207075726368617365606482015260840161044c565b6000610ac76002610ac13460646112fb565b9061130e565b90506000610ad582346119d0565b6000868152609a60205260409020600301549091506001600160a01b0316610afd8183611110565b604051632142170760e11b8152306004820152336024820152604481018590526001600160a01b038816906342842e0e90606401600060405180830381600087803b158015610b4b57600080fd5b505af1158015610b5f573d6000803e3d6000fd5b5050506000878152609a602052604090206004810180546001600160a01b031990811633179091556003820180549091169055600701805460ff1916600117905550610baf609880546001019055565b606554610bc5906001600160a01b031647611110565b6000868152609a60209081526040918290206002810154600482015460059092015484516001600160a01b038d811682529384169481019490945282168385015260608301899052600160808401523060a08401529251908416929189917f17647858a59d66933ee49e84163d436059a625fe1d8558dc8772ce11df52727a9181900360c00190a45050600180555050505050565b610c626113e4565b609754821115610cab5760405162461bcd60e51b81526020600482015260146024820152731a5d195b5259081b5d5cdd081899481d985b1a5960621b604482015260640161044c565b506000908152609a60209081526040918290208251610100810184528154815260018201546001600160a01b0390811693820193909352600282015493810193909352600381015482166060840152600481015482166080840152600581015490911660a0830152600681015460c08301526007015460ff16151560e082015290565b6060610413333063872d06f1610dd7565b6065546001600160a01b03163314610d695760405162461bcd60e51b815260040161044c90611853565b6001600160a01b038116610dce5760405162461bcd60e51b815260206004820152602660248201527f4f776e61626c653a206e6577206f776e657220697320746865207a65726f206160448201526564647265737360d01b606482015260840161044c565b6109d38161122e565b60606000610de460975490565b905060008060005b83811015610eb8576001600160a01b0388168787609a6000610e0f866001611979565b81526020019081526020016000206040518263ffffffff1660e01b8152600401610e399190611912565b60206040518083038186803b158015610e5157600080fd5b505afa158015610e65573d6000803e3d6000fd5b505050506040513d601f19601f82011682018060405250810190610e899190611464565b6001600160a01b03161415610ea657610ea3600184611979565b92505b80610eb081611a17565b915050610dec565b5060008267ffffffffffffffff811115610ee257634e487b7160e01b600052604160045260246000fd5b604051908082528060200260200182016040528015610f1b57816020015b610f086113e4565b815260200190600190039081610f005790505b50905060005b848110156110ad576001600160a01b0389168888609a6000610f44866001611979565b81526020019081526020016000206040518263ffffffff1660e01b8152600401610f6e9190611912565b60206040518083038186803b158015610f8657600080fd5b505afa158015610f9a573d6000803e3d6000fd5b505050506040513d601f19601f82011682018060405250810190610fbe9190611464565b6001600160a01b0316141561109b576000610fda826001611979565b6000818152609a60209081526040918290208251610100810184528154815260018201546001600160a01b0390811693820193909352600282015493810193909352600381015482166060840152600481015482166080840152600581015490911660a0830152600681015460c0830152600781015460ff16151560e083015285519293509185908790811061108057634e487b7160e01b600052603260045260246000fd5b6020908102919091010152611096600186611979565b945050505b806110a581611a17565b915050610f21565b50979650505050505050565b8054806111085760405162461bcd60e51b815260206004820152601b60248201527f436f756e7465723a2064656372656d656e74206f766572666c6f770000000000604482015260640161044c565b600019019055565b804710156111605760405162461bcd60e51b815260206004820152601d60248201527f416464726573733a20696e73756666696369656e742062616c616e6365000000604482015260640161044c565b6000826001600160a01b03168260405160006040518083038185875af1925050503d80600081146111ad576040519150601f19603f3d011682016040523d82523d6000602084013e6111b2565b606091505b50509050806112295760405162461bcd60e51b815260206004820152603a60248201527f416464726573733a20756e61626c6520746f2073656e642076616c75652c207260448201527f6563697069656e74206d61792068617665207265766572746564000000000000606482015260840161044c565b505050565b606580546001600160a01b038381166001600160a01b0319831681179093556040519116919082907f8be0079c531659141344cd1fd0a4f28419497f9722a3daafe3b4186f6b6457e090600090a35050565b600054610100900460ff1680611299575060005460ff16155b6112b55760405162461bcd60e51b815260040161044c90611805565b600054610100900460ff161580156112d7576000805461ffff19166101011790555b6112df61131a565b6112e7611384565b80156109d3576000805461ff001916905550565b60006113078284611991565b9392505050565b600061130782846119b1565b600054610100900460ff1680611333575060005460ff16155b61134f5760405162461bcd60e51b815260040161044c90611805565b600054610100900460ff161580156112e7576000805461ffff191661010117905580156109d3576000805461ff001916905550565b600054610100900460ff168061139d575060005460ff16155b6113b95760405162461bcd60e51b815260040161044c90611805565b600054610100900460ff161580156113db576000805461ffff19166101011790555b6112e73361122e565b6040805161010081018252600080825260208201819052918101829052606081018290526080810182905260a0810182905260c0810182905260e081019190915290565b803561143381611a5e565b919050565b8035801515811461143357600080fd5b600060208284031215611459578081fd5b813561130781611a5e565b600060208284031215611475578081fd5b815161130781611a5e565b600080600080600060808688031215611497578081fd5b85356114a281611a5e565b945060208601356114b281611a5e565b935060408601359250606086013567ffffffffffffffff808211156114d5578283fd5b818801915088601f8301126114e8578283fd5b8135818111156114f6578384fd5b896020828501011115611507578384fd5b9699959850939650602001949392505050565b6000806040838503121561152c578182fd5b823561153781611a5e565b946020939093013593505050565b600080600060608486031215611559578283fd5b833561156481611a5e565b95602085013595506040909401359392505050565b60006020828403121561158a578081fd5b815167ffffffffffffffff808211156115a1578283fd5b818401915084601f8301126115b4578283fd5b8151818111156115c6576115c6611a48565b604051601f8201601f19908116603f011681019083821181831017156115ee576115ee611a48565b81604052828152876020848701011115611606578586fd5b6116178360208301602088016119e7565b979650505050505050565b6000610100808385031215611635578182fd5b6040519081019067ffffffffffffffff8211818310171561165857611658611a48565b81604052833581526020840135915061167082611a5e565b8160208201526040840135604082015261168c60608501611428565b606082015261169d60808501611428565b60808201526116ae60a08501611428565b60a082015260c084013560c08201526116c960e08501611438565b60e0820152949350505050565b6000602082840312156116e7578081fd5b5035919050565b80518252602081015160018060a01b038082166020850152604083015160408501528060608401511660608501528060808401511660808501528060a08401511660a0850152505060c081015160c083015260e0810151151560e08301525050565b600060018060a01b0380891683528088166020840152808716604084015250846060830152831515608083015260c060a083015282518060c084015261179d8160e08501602087016119e7565b601f01601f19169190910160e001979650505050505050565b6020808252825182820181905260009190848201906040850190845b818110156117f9576117e58385516116ee565b9284019261010092909201916001016117d2565b50909695505050505050565b6020808252602e908201527f496e697469616c697a61626c653a20636f6e747261637420697320616c72656160408201526d191e481a5b9a5d1a585b1a5e995960921b606082015260800190565b6020808252818101527f4f776e61626c653a2063616c6c6572206973206e6f7420746865206f776e6572604082015260600190565b60208082526024908201527f5072696365206d75737420626520657175616c20746f206c697374696e6720706040820152637269636560e01b606082015260800190565b6020808252601f908201527f5265656e7472616e637947756172643a207265656e7472616e742063616c6c00604082015260600190565b610100810161062e82846116ee565b8154815260018201546001600160a01b0390811660208301526002830154604083015260038301548116606083015260048301548116608083015260058301541660a0820152600682015460c082015260079091015460ff16151560e08201526101000190565b6000821982111561198c5761198c611a32565b500190565b6000826119ac57634e487b7160e01b81526012600452602481fd5b500490565b60008160001904831182151516156119cb576119cb611a32565b500290565b6000828210156119e2576119e2611a32565b500390565b60005b83811015611a025781810151838201526020016119ea565b83811115611a11576000848401525b50505050565b6000600019821415611a2b57611a2b611a32565b5060010190565b634e487b7160e01b600052601160045260246000fd5b634e487b7160e01b600052604160045260246000fd5b6001600160a01b03811681146109d357600080fdfea26469706673582212201df7d7ec5809b109cb1e8276287460ec36be56689d8f6dae54d1620bb7f9bc2b64736f6c63430008040033",
  "linkReferences": {},
  "deployedLinkReferences": {}
}