{
  "_format": "hh-sol-artifact-1",
  "contractName": "NFT",
  "sourceName": "contracts/NFT.sol",
  "abi": [
    {
      "inputs": [
        {
          "internalType": "address",
          "name": "marketplaceAddress",
          "type": "address"
        }
      ],
      "stateMutability": "nonpayable",
      "type": "constructor"
    },
    {
      "anonymous": false,
      "inputs": [
        {
          "indexed": true,
          "internalType": "address",
          "name": "owner",
          "type": "address"
        },
        {
          "indexed": true,
          "internalType": "address",
          "name": "approved",
          "type": "address"
        },
        {
          "indexed": true,
          "internalType": "uint256",
          "name": "tokenId",
          "type": "uint256"
        }
      ],
      "name": "Approval",
      "type": "event"
    },
    {
      "anonymous": false,
      "inputs": [
        {
          "indexed": true,
          "internalType": "address",
          "name": "owner",
          "type": "address"
        },
        {
          "indexed": true,
          "internalType": "address",
          "name": "operator",
          "type": "address"
        },
        {
          "indexed": false,
          "internalType": "bool",
          "name": "approved",
          "type": "bool"
        }
      ],
      "name": "ApprovalForAll",
      "type": "event"
    },
    {
      "anonymous": false,
      "inputs": [
        {
          "indexed": true,
          "internalType": "address",
          "name": "from",
          "type": "address"
        },
        {
          "indexed": true,
          "internalType": "address",
          "name": "to",
          "type": "address"
        },
        {
          "indexed": true,
          "internalType": "uint256",
          "name": "tokenId",
          "type": "uint256"
        },
        {
          "indexed": false,
          "internalType": "string",
          "name": "tokenURI",
          "type": "string"
        }
      ],
      "name": "Minted",
      "type": "event"
    },
    {
      "anonymous": false,
      "inputs": [
        {
          "indexed": true,
          "internalType": "address",
          "name": "previousOwner",
          "type": "address"
        },
        {
          "indexed": true,
          "internalType": "address",
          "name": "newOwner",
          "type": "address"
        }
      ],
      "name": "OwnershipTransferred",
      "type": "event"
    },
    {
      "anonymous": false,
      "inputs": [
        {
          "indexed": true,
          "internalType": "address",
          "name": "from",
          "type": "address"
        },
        {
          "indexed": true,
          "internalType": "address",
          "name": "to",
          "type": "address"
        },
        {
          "indexed": true,
          "internalType": "uint256",
          "name": "tokenId",
          "type": "uint256"
        }
      ],
      "name": "Transfer",
      "type": "event"
    },
    {
      "inputs": [
        {
          "internalType": "address",
          "name": "to",
          "type": "address"
        },
        {
          "internalType": "uint256",
          "name": "tokenId",
          "type": "uint256"
        }
      ],
      "name": "approve",
      "outputs": [],
      "stateMutability": "nonpayable",
      "type": "function"
    },
    {
      "inputs": [
        {
          "internalType": "address",
          "name": "owner",
          "type": "address"
        }
      ],
      "name": "balanceOf",
      "outputs": [
        {
          "internalType": "uint256",
          "name": "",
          "type": "uint256"
        }
      ],
      "stateMutability": "view",
      "type": "function"
    },
    {
      "inputs": [
        {
          "internalType": "string",
          "name": "tokenURI",
          "type": "string"
        }
      ],
      "name": "createToken",
      "outputs": [
        {
          "internalType": "uint256",
          "name": "",
          "type": "uint256"
        }
      ],
      "stateMutability": "nonpayable",
      "type": "function"
    },
    {
      "inputs": [
        {
          "internalType": "uint256",
          "name": "tokenId",
          "type": "uint256"
        }
      ],
      "name": "getApproved",
      "outputs": [
        {
          "internalType": "address",
          "name": "",
          "type": "address"
        }
      ],
      "stateMutability": "view",
      "type": "function"
    },
    {
      "inputs": [
        {
          "internalType": "address",
          "name": "owner",
          "type": "address"
        },
        {
          "internalType": "address",
          "name": "operator",
          "type": "address"
        }
      ],
      "name": "isApprovedForAll",
      "outputs": [
        {
          "internalType": "bool",
          "name": "",
          "type": "bool"
        }
      ],
      "stateMutability": "view",
      "type": "function"
    },
    {
      "inputs": [],
      "name": "marketAddress",
      "outputs": [
        {
          "internalType": "address",
          "name": "",
          "type": "address"
        }
      ],
      "stateMutability": "view",
      "type": "function"
    },
    {
      "inputs": [],
      "name": "name",
      "outputs": [
        {
          "internalType": "string",
          "name": "",
          "type": "string"
        }
      ],
      "stateMutability": "view",
      "type": "function"
    },
    {
      "inputs": [],
      "name": "owner",
      "outputs": [
        {
          "internalType": "address",
          "name": "",
          "type": "address"
        }
      ],
      "stateMutability": "view",
      "type": "function"
    },
    {
      "inputs": [
        {
          "internalType": "uint256",
          "name": "tokenId",
          "type": "uint256"
        }
      ],
      "name": "ownerOf",
      "outputs": [
        {
          "internalType": "address",
          "name": "",
          "type": "address"
        }
      ],
      "stateMutability": "view",
      "type": "function"
    },
    {
      "inputs": [],
      "name": "renounceOwnership",
      "outputs": [],
      "stateMutability": "nonpayable",
      "type": "function"
    },
    {
      "inputs": [
        {
          "internalType": "address",
          "name": "from",
          "type": "address"
        },
        {
          "internalType": "address",
          "name": "to",
          "type": "address"
        },
        {
          "internalType": "uint256",
          "name": "tokenId",
          "type": "uint256"
        }
      ],
      "name": "safeTransferFrom",
      "outputs": [],
      "stateMutability": "nonpayable",
      "type": "function"
    },
    {
      "inputs": [
        {
          "internalType": "address",
          "name": "from",
          "type": "address"
        },
        {
          "internalType": "address",
          "name": "to",
          "type": "address"
        },
        {
          "internalType": "uint256",
          "name": "tokenId",
          "type": "uint256"
        },
        {
          "internalType": "bytes",
          "name": "_data",
          "type": "bytes"
        }
      ],
      "name": "safeTransferFrom",
      "outputs": [],
      "stateMutability": "nonpayable",
      "type": "function"
    },
    {
      "inputs": [
        {
          "internalType": "address",
          "name": "operator",
          "type": "address"
        },
        {
          "internalType": "bool",
          "name": "approved",
          "type": "bool"
        }
      ],
      "name": "setApprovalForAll",
      "outputs": [],
      "stateMutability": "nonpayable",
      "type": "function"
    },
    {
      "inputs": [
        {
          "internalType": "address",
          "name": "newMarketAddress",
          "type": "address"
        }
      ],
      "name": "setMarketAddress",
      "outputs": [],
      "stateMutability": "nonpayable",
      "type": "function"
    },
    {
      "inputs": [
        {
          "internalType": "bytes4",
          "name": "interfaceId",
          "type": "bytes4"
        }
      ],
      "name": "supportsInterface",
      "outputs": [
        {
          "internalType": "bool",
          "name": "",
          "type": "bool"
        }
      ],
      "stateMutability": "view",
      "type": "function"
    },
    {
      "inputs": [],
      "name": "symbol",
      "outputs": [
        {
          "internalType": "string",
          "name": "",
          "type": "string"
        }
      ],
      "stateMutability": "view",
      "type": "function"
    },
    {
      "inputs": [
        {
          "internalType": "uint256",
          "name": "tokenId",
          "type": "uint256"
        }
      ],
      "name": "tokenURI",
      "outputs": [
        {
          "internalType": "string",
          "name": "",
          "type": "string"
        }
      ],
      "stateMutability": "view",
      "type": "function"
    },
    {
      "inputs": [
        {
          "internalType": "address",
          "name": "from",
          "type": "address"
        },
        {
          "internalType": "address",
          "name": "to",
          "type": "address"
        },
        {
          "internalType": "uint256",
          "name": "tokenId",
          "type": "uint256"
        }
      ],
      "name": "transferFrom",
      "outputs": [],
      "stateMutability": "nonpayable",
      "type": "function"
    },
    {
      "inputs": [
        {
          "internalType": "address",
          "name": "newOwner",
          "type": "address"
        }
      ],
      "name": "transferOwnership",
      "outputs": [],
      "stateMutability": "nonpayable",
      "type": "function"
    }
  ],
  "bytecode": "0x60806040523480156200001157600080fd5b5060405162001bb238038062001bb28339810160408190526200003491620001e9565b604080518082018252601381527f4e6966747920506978656c7320546f6b656e730000000000000000000000000060208083019182528351808501909452600384526213941560ea1b908401528151919291620000949160009162000143565b508051620000aa90600190602084019062000143565b505050620000c7620000c1620000ed60201b60201c565b620000f1565b600980546001600160a01b0319166001600160a01b039290921691909117905562000256565b3390565b600780546001600160a01b038381166001600160a01b0319831681179093556040519116919082907f8be0079c531659141344cd1fd0a4f28419497f9722a3daafe3b4186f6b6457e090600090a35050565b828054620001519062000219565b90600052602060002090601f016020900481019282620001755760008555620001c0565b82601f106200019057805160ff1916838001178555620001c0565b82800160010185558215620001c0579182015b82811115620001c0578251825591602001919060010190620001a3565b50620001ce929150620001d2565b5090565b5b80821115620001ce5760008155600101620001d3565b600060208284031215620001fb578081fd5b81516001600160a01b038116811462000212578182fd5b9392505050565b600181811c908216806200022e57607f821691505b602082108114156200025057634e487b7160e01b600052602260045260246000fd5b50919050565b61194c80620002666000396000f3fe608060405234801561001057600080fd5b50600436106101215760003560e01c8063715018a6116100ad578063b88d4fde11610071578063b88d4fde14610257578063c87b56dd1461026a578063e985e9c51461027d578063f2fde38b146102b9578063fae92612146102cc57600080fd5b8063715018a6146102105780638da5cb5b14610218578063956236411461022957806395d89b411461023c578063a22cb4651461024457600080fd5b806323b872dd116100f457806323b872dd146101a357806342842e0e146101b657806345576f94146101c95780636352211e146101ea57806370a08231146101fd57600080fd5b806301ffc9a71461012657806306fdde031461014e578063081812fc14610163578063095ea7b31461018e575b600080fd5b6101396101343660046115cc565b6102df565b60405190151581526020015b60405180910390f35b610156610331565b60405161014591906116fa565b61017661017136600461164a565b6103c3565b6040516001600160a01b039091168152602001610145565b6101a161019c3660046115a3565b610450565b005b6101a16101b13660046114b5565b610566565b6101a16101c43660046114b5565b610597565b6101dc6101d7366004611604565b6105b2565b604051908152602001610145565b6101766101f836600461164a565b61064d565b6101dc61020b366004611469565b6106c4565b6101a161074b565b6007546001600160a01b0316610176565b600954610176906001600160a01b031681565b610156610781565b6101a1610252366004611569565b610790565b6101a16102653660046114f0565b610855565b61015661027836600461164a565b61088d565b61013961028b366004611483565b6001600160a01b03918216600090815260056020908152604080832093909416825291909152205460ff1690565b6101a16102c7366004611469565b610a04565b6101a16102da366004611469565b610a9f565b60006001600160e01b031982166380ac58cd60e01b148061031057506001600160e01b03198216635b5e139f60e01b145b8061032b57506301ffc9a760e01b6001600160e01b03198316145b92915050565b60606000805461034090611854565b80601f016020809104026020016040519081016040528092919081815260200182805461036c90611854565b80156103b95780601f1061038e576101008083540402835291602001916103b9565b820191906000526020600020905b81548152906001019060200180831161039c57829003601f168201915b5050505050905090565b60006103ce82610aeb565b6104345760405162461bcd60e51b815260206004820152602c60248201527f4552433732313a20617070726f76656420717565727920666f72206e6f6e657860448201526b34b9ba32b73a103a37b5b2b760a11b60648201526084015b60405180910390fd5b506000908152600460205260409020546001600160a01b031690565b600061045b8261064d565b9050806001600160a01b0316836001600160a01b031614156104c95760405162461bcd60e51b815260206004820152602160248201527f4552433732313a20617070726f76616c20746f2063757272656e74206f776e656044820152603960f91b606482015260840161042b565b336001600160a01b03821614806104e557506104e5813361028b565b6105575760405162461bcd60e51b815260206004820152603860248201527f4552433732313a20617070726f76652063616c6c6572206973206e6f74206f7760448201527f6e6572206e6f7220617070726f76656420666f7220616c6c0000000000000000606482015260840161042b565b6105618383610b08565b505050565b6105703382610b76565b61058c5760405162461bcd60e51b815260040161042b90611794565b610561838383610c5c565b61056183838360405180602001604052806000815250610855565b60006105c2600880546001019055565b60006105cd60085490565b90506105d93382610dfc565b6105e38184610f2f565b6009546105fa906001600160a01b03166001610790565b80336001600160a01b031660006001600160a01b03167fafe8c5a4c36942a61550534b714a0076ab46ef8ef23e361572aad8b7ca2ac27d8660405161063f91906116fa565b60405180910390a492915050565b6000818152600260205260408120546001600160a01b03168061032b5760405162461bcd60e51b815260206004820152602960248201527f4552433732313a206f776e657220717565727920666f72206e6f6e657869737460448201526832b73a103a37b5b2b760b91b606482015260840161042b565b60006001600160a01b03821661072f5760405162461bcd60e51b815260206004820152602a60248201527f4552433732313a2062616c616e636520717565727920666f7220746865207a65604482015269726f206164647265737360b01b606482015260840161042b565b506001600160a01b031660009081526003602052604090205490565b6007546001600160a01b031633146107755760405162461bcd60e51b815260040161042b9061175f565b61077f6000610fba565b565b60606001805461034090611854565b6001600160a01b0382163314156107e95760405162461bcd60e51b815260206004820152601960248201527f4552433732313a20617070726f766520746f2063616c6c657200000000000000604482015260640161042b565b3360008181526005602090815260408083206001600160a01b03871680855290835292819020805460ff191686151590811790915590519081529192917f17307eab39ab6107e8899845ad3d59bd9653f200f220920489ca2b5937696c31910160405180910390a35050565b61085f3383610b76565b61087b5760405162461bcd60e51b815260040161042b90611794565b6108878484848461100c565b50505050565b606061089882610aeb565b6108fe5760405162461bcd60e51b815260206004820152603160248201527f45524337323155524953746f726167653a2055524920717565727920666f72206044820152703737b732bc34b9ba32b73a103a37b5b2b760791b606482015260840161042b565b6000828152600660205260408120805461091790611854565b80601f016020809104026020016040519081016040528092919081815260200182805461094390611854565b80156109905780601f1061096557610100808354040283529160200191610990565b820191906000526020600020905b81548152906001019060200180831161097357829003601f168201915b5050505050905060006109ae60408051602081019091526000815290565b90508051600014156109c1575092915050565b8151156109f35780826040516020016109db92919061168e565b60405160208183030381529060405292505050919050565b6109fc8461103f565b949350505050565b6007546001600160a01b03163314610a2e5760405162461bcd60e51b815260040161042b9061175f565b6001600160a01b038116610a935760405162461bcd60e51b815260206004820152602660248201527f4f776e61626c653a206e6577206f776e657220697320746865207a65726f206160448201526564647265737360d01b606482015260840161042b565b610a9c81610fba565b50565b6007546001600160a01b03163314610ac95760405162461bcd60e51b815260040161042b9061175f565b600980546001600160a01b0319166001600160a01b0392909216919091179055565b6000908152600260205260409020546001600160a01b0316151590565b600081815260046020526040902080546001600160a01b0319166001600160a01b0384169081179091558190610b3d8261064d565b6001600160a01b03167f8c5be1e5ebec7d5bd14f71427d1e84f3dd0314c0f7b2291e5b200ac8c7c3b92560405160405180910390a45050565b6000610b8182610aeb565b610be25760405162461bcd60e51b815260206004820152602c60248201527f4552433732313a206f70657261746f7220717565727920666f72206e6f6e657860448201526b34b9ba32b73a103a37b5b2b760a11b606482015260840161042b565b6000610bed8361064d565b9050806001600160a01b0316846001600160a01b03161480610c285750836001600160a01b0316610c1d846103c3565b6001600160a01b0316145b806109fc57506001600160a01b0380821660009081526005602090815260408083209388168352929052205460ff166109fc565b826001600160a01b0316610c6f8261064d565b6001600160a01b031614610cd75760405162461bcd60e51b815260206004820152602960248201527f4552433732313a207472616e73666572206f6620746f6b656e2074686174206960448201526839903737ba1037bbb760b91b606482015260840161042b565b6001600160a01b038216610d395760405162461bcd60e51b8152602060048201526024808201527f4552433732313a207472616e7366657220746f20746865207a65726f206164646044820152637265737360e01b606482015260840161042b565b610d44600082610b08565b6001600160a01b0383166000908152600360205260408120805460019290610d6d908490611811565b90915550506001600160a01b0382166000908152600360205260408120805460019290610d9b9084906117e5565b909155505060008181526002602052604080822080546001600160a01b0319166001600160a01b0386811691821790925591518493918716917fddf252ad1be2c89b69c2b068fc378daa952ba7f163c4a11628f55a4df523b3ef91a4505050565b6001600160a01b038216610e525760405162461bcd60e51b815260206004820181905260248201527f4552433732313a206d696e7420746f20746865207a65726f2061646472657373604482015260640161042b565b610e5b81610aeb565b15610ea85760405162461bcd60e51b815260206004820152601c60248201527f4552433732313a20746f6b656e20616c7265616479206d696e74656400000000604482015260640161042b565b6001600160a01b0382166000908152600360205260408120805460019290610ed19084906117e5565b909155505060008181526002602052604080822080546001600160a01b0319166001600160a01b03861690811790915590518392907fddf252ad1be2c89b69c2b068fc378daa952ba7f163c4a11628f55a4df523b3ef908290a45050565b610f3882610aeb565b610f9b5760405162461bcd60e51b815260206004820152602e60248201527f45524337323155524953746f726167653a2055524920736574206f66206e6f6e60448201526d32bc34b9ba32b73a103a37b5b2b760911b606482015260840161042b565b600082815260066020908152604090912082516105619284019061133e565b600780546001600160a01b038381166001600160a01b0319831681179093556040519116919082907f8be0079c531659141344cd1fd0a4f28419497f9722a3daafe3b4186f6b6457e090600090a35050565b611017848484610c5c565b61102384848484611117565b6108875760405162461bcd60e51b815260040161042b9061170d565b606061104a82610aeb565b6110ae5760405162461bcd60e51b815260206004820152602f60248201527f4552433732314d657461646174613a2055524920717565727920666f72206e6f60448201526e3732bc34b9ba32b73a103a37b5b2b760891b606482015260840161042b565b60006110c560408051602081019091526000815290565b905060008151116110e55760405180602001604052806000815250611110565b806110ef84611224565b60405160200161110092919061168e565b6040516020818303038152906040525b9392505050565b60006001600160a01b0384163b1561121957604051630a85bd0160e11b81526001600160a01b0385169063150b7a029061115b9033908990889088906004016116bd565b602060405180830381600087803b15801561117557600080fd5b505af19250505080156111a5575060408051601f3d908101601f191682019092526111a2918101906115e8565b60015b6111ff573d8080156111d3576040519150601f19603f3d011682016040523d82523d6000602084013e6111d8565b606091505b5080516111f75760405162461bcd60e51b815260040161042b9061170d565b805181602001fd5b6001600160e01b031916630a85bd0160e11b1490506109fc565b506001949350505050565b6060816112485750506040805180820190915260018152600360fc1b602082015290565b8160005b8115611272578061125c8161188f565b915061126b9050600a836117fd565b915061124c565b60008167ffffffffffffffff81111561129b57634e487b7160e01b600052604160045260246000fd5b6040519080825280601f01601f1916602001820160405280156112c5576020820181803683370190505b5090505b84156109fc576112da600183611811565b91506112e7600a866118aa565b6112f29060306117e5565b60f81b81838151811061131557634e487b7160e01b600052603260045260246000fd5b60200101906001600160f81b031916908160001a905350611337600a866117fd565b94506112c9565b82805461134a90611854565b90600052602060002090601f01602090048101928261136c57600085556113b2565b82601f1061138557805160ff19168380011785556113b2565b828001600101855582156113b2579182015b828111156113b2578251825591602001919060010190611397565b506113be9291506113c2565b5090565b5b808211156113be57600081556001016113c3565b600067ffffffffffffffff808411156113f2576113f26118ea565b604051601f8501601f19908116603f0116810190828211818310171561141a5761141a6118ea565b8160405280935085815286868601111561143357600080fd5b858560208301376000602087830101525050509392505050565b80356001600160a01b038116811461146457600080fd5b919050565b60006020828403121561147a578081fd5b6111108261144d565b60008060408385031215611495578081fd5b61149e8361144d565b91506114ac6020840161144d565b90509250929050565b6000806000606084860312156114c9578081fd5b6114d28461144d565b92506114e06020850161144d565b9150604084013590509250925092565b60008060008060808587031215611505578081fd5b61150e8561144d565b935061151c6020860161144d565b925060408501359150606085013567ffffffffffffffff81111561153e578182fd5b8501601f8101871361154e578182fd5b61155d878235602084016113d7565b91505092959194509250565b6000806040838503121561157b578182fd5b6115848361144d565b915060208301358015158114611598578182fd5b809150509250929050565b600080604083850312156115b5578182fd5b6115be8361144d565b946020939093013593505050565b6000602082840312156115dd578081fd5b813561111081611900565b6000602082840312156115f9578081fd5b815161111081611900565b600060208284031215611615578081fd5b813567ffffffffffffffff81111561162b578182fd5b8201601f8101841361163b578182fd5b6109fc848235602084016113d7565b60006020828403121561165b578081fd5b5035919050565b6000815180845261167a816020860160208601611828565b601f01601f19169290920160200192915050565b600083516116a0818460208801611828565b8351908301906116b4818360208801611828565b01949350505050565b6001600160a01b03858116825284166020820152604081018390526080606082018190526000906116f090830184611662565b9695505050505050565b6020815260006111106020830184611662565b60208082526032908201527f4552433732313a207472616e7366657220746f206e6f6e20455243373231526560408201527131b2b4bb32b91034b6b83632b6b2b73a32b960711b606082015260800190565b6020808252818101527f4f776e61626c653a2063616c6c6572206973206e6f7420746865206f776e6572604082015260600190565b60208082526031908201527f4552433732313a207472616e736665722063616c6c6572206973206e6f74206f6040820152701ddb995c881b9bdc88185c1c1c9bdd9959607a1b606082015260800190565b600082198211156117f8576117f86118be565b500190565b60008261180c5761180c6118d4565b500490565b600082821015611823576118236118be565b500390565b60005b8381101561184357818101518382015260200161182b565b838111156108875750506000910152565b600181811c9082168061186857607f821691505b6020821081141561188957634e487b7160e01b600052602260045260246000fd5b50919050565b60006000198214156118a3576118a36118be565b5060010190565b6000826118b9576118b96118d4565b500690565b634e487b7160e01b600052601160045260246000fd5b634e487b7160e01b600052601260045260246000fd5b634e487b7160e01b600052604160045260246000fd5b6001600160e01b031981168114610a9c57600080fdfea2646970667358221220b02a5cb9c3aaae027e9139919fd2311863010c7039c9ce5e1bc3d65c0b3833f064736f6c63430008040033",
  "linkReferences": {},
  "deployedLinkReferences": {}
}