{
  "_format": "hh-sol-artifact-1",
  "contractName": "NFT",
  "sourceName": "contracts/NFT.sol",
  "abi": [
    {
      "inputs": [
        {
          "internalType": "address",
          "name": "marketplaceAddress",
          "type": "address"
        }
      ],
      "stateMutability": "nonpayable",
      "type": "constructor"
    },
    {
      "anonymous": false,
      "inputs": [
        {
          "indexed": true,
          "internalType": "address",
          "name": "owner",
          "type": "address"
        },
        {
          "indexed": true,
          "internalType": "address",
          "name": "approved",
          "type": "address"
        },
        {
          "indexed": true,
          "internalType": "uint256",
          "name": "tokenId",
          "type": "uint256"
        }
      ],
      "name": "Approval",
      "type": "event"
    },
    {
      "anonymous": false,
      "inputs": [
        {
          "indexed": true,
          "internalType": "address",
          "name": "owner",
          "type": "address"
        },
        {
          "indexed": true,
          "internalType": "address",
          "name": "operator",
          "type": "address"
        },
        {
          "indexed": false,
          "internalType": "bool",
          "name": "approved",
          "type": "bool"
        }
      ],
      "name": "ApprovalForAll",
      "type": "event"
    },
    {
      "anonymous": false,
      "inputs": [
        {
          "indexed": true,
          "internalType": "address",
          "name": "from",
          "type": "address"
        },
        {
          "indexed": true,
          "internalType": "address",
          "name": "to",
          "type": "address"
        },
        {
          "indexed": true,
          "internalType": "uint256",
          "name": "tokenId",
          "type": "uint256"
        },
        {
          "indexed": false,
          "internalType": "string",
          "name": "tokenURI",
          "type": "string"
        },
        {
          "indexed": false,
          "internalType": "string",
          "name": "uuid",
          "type": "string"
        }
      ],
      "name": "Minted",
      "type": "event"
    },
    {
      "anonymous": false,
      "inputs": [
        {
          "indexed": true,
          "internalType": "address",
          "name": "previousOwner",
          "type": "address"
        },
        {
          "indexed": true,
          "internalType": "address",
          "name": "newOwner",
          "type": "address"
        }
      ],
      "name": "OwnershipTransferred",
      "type": "event"
    },
    {
      "anonymous": false,
      "inputs": [
        {
          "indexed": true,
          "internalType": "address",
          "name": "from",
          "type": "address"
        },
        {
          "indexed": true,
          "internalType": "address",
          "name": "to",
          "type": "address"
        },
        {
          "indexed": true,
          "internalType": "uint256",
          "name": "tokenId",
          "type": "uint256"
        }
      ],
      "name": "Transfer",
      "type": "event"
    },
    {
      "inputs": [
        {
          "internalType": "address",
          "name": "to",
          "type": "address"
        },
        {
          "internalType": "uint256",
          "name": "tokenId",
          "type": "uint256"
        }
      ],
      "name": "approve",
      "outputs": [],
      "stateMutability": "nonpayable",
      "type": "function"
    },
    {
      "inputs": [
        {
          "internalType": "address",
          "name": "owner",
          "type": "address"
        }
      ],
      "name": "balanceOf",
      "outputs": [
        {
          "internalType": "uint256",
          "name": "",
          "type": "uint256"
        }
      ],
      "stateMutability": "view",
      "type": "function"
    },
    {
      "inputs": [
        {
          "internalType": "string",
          "name": "tokenURI",
          "type": "string"
        },
        {
          "internalType": "string",
          "name": "uuid",
          "type": "string"
        }
      ],
      "name": "createToken",
      "outputs": [
        {
          "internalType": "uint256",
          "name": "",
          "type": "uint256"
        }
      ],
      "stateMutability": "nonpayable",
      "type": "function"
    },
    {
      "inputs": [
        {
          "internalType": "uint256",
          "name": "tokenId",
          "type": "uint256"
        }
      ],
      "name": "getApproved",
      "outputs": [
        {
          "internalType": "address",
          "name": "",
          "type": "address"
        }
      ],
      "stateMutability": "view",
      "type": "function"
    },
    {
      "inputs": [
        {
          "internalType": "address",
          "name": "owner",
          "type": "address"
        },
        {
          "internalType": "address",
          "name": "operator",
          "type": "address"
        }
      ],
      "name": "isApprovedForAll",
      "outputs": [
        {
          "internalType": "bool",
          "name": "",
          "type": "bool"
        }
      ],
      "stateMutability": "view",
      "type": "function"
    },
    {
      "inputs": [],
      "name": "marketAddress",
      "outputs": [
        {
          "internalType": "address",
          "name": "",
          "type": "address"
        }
      ],
      "stateMutability": "view",
      "type": "function"
    },
    {
      "inputs": [],
      "name": "name",
      "outputs": [
        {
          "internalType": "string",
          "name": "",
          "type": "string"
        }
      ],
      "stateMutability": "view",
      "type": "function"
    },
    {
      "inputs": [],
      "name": "owner",
      "outputs": [
        {
          "internalType": "address",
          "name": "",
          "type": "address"
        }
      ],
      "stateMutability": "view",
      "type": "function"
    },
    {
      "inputs": [
        {
          "internalType": "uint256",
          "name": "tokenId",
          "type": "uint256"
        }
      ],
      "name": "ownerOf",
      "outputs": [
        {
          "internalType": "address",
          "name": "",
          "type": "address"
        }
      ],
      "stateMutability": "view",
      "type": "function"
    },
    {
      "inputs": [],
      "name": "renounceOwnership",
      "outputs": [],
      "stateMutability": "nonpayable",
      "type": "function"
    },
    {
      "inputs": [
        {
          "internalType": "address",
          "name": "from",
          "type": "address"
        },
        {
          "internalType": "address",
          "name": "to",
          "type": "address"
        },
        {
          "internalType": "uint256",
          "name": "tokenId",
          "type": "uint256"
        }
      ],
      "name": "safeTransferFrom",
      "outputs": [],
      "stateMutability": "nonpayable",
      "type": "function"
    },
    {
      "inputs": [
        {
          "internalType": "address",
          "name": "from",
          "type": "address"
        },
        {
          "internalType": "address",
          "name": "to",
          "type": "address"
        },
        {
          "internalType": "uint256",
          "name": "tokenId",
          "type": "uint256"
        },
        {
          "internalType": "bytes",
          "name": "_data",
          "type": "bytes"
        }
      ],
      "name": "safeTransferFrom",
      "outputs": [],
      "stateMutability": "nonpayable",
      "type": "function"
    },
    {
      "inputs": [
        {
          "internalType": "address",
          "name": "operator",
          "type": "address"
        },
        {
          "internalType": "bool",
          "name": "approved",
          "type": "bool"
        }
      ],
      "name": "setApprovalForAll",
      "outputs": [],
      "stateMutability": "nonpayable",
      "type": "function"
    },
    {
      "inputs": [
        {
          "internalType": "address",
          "name": "newMarketAddress",
          "type": "address"
        }
      ],
      "name": "setMarketAddress",
      "outputs": [],
      "stateMutability": "nonpayable",
      "type": "function"
    },
    {
      "inputs": [
        {
          "internalType": "bytes4",
          "name": "interfaceId",
          "type": "bytes4"
        }
      ],
      "name": "supportsInterface",
      "outputs": [
        {
          "internalType": "bool",
          "name": "",
          "type": "bool"
        }
      ],
      "stateMutability": "view",
      "type": "function"
    },
    {
      "inputs": [],
      "name": "symbol",
      "outputs": [
        {
          "internalType": "string",
          "name": "",
          "type": "string"
        }
      ],
      "stateMutability": "view",
      "type": "function"
    },
    {
      "inputs": [
        {
          "internalType": "uint256",
          "name": "tokenId",
          "type": "uint256"
        }
      ],
      "name": "tokenURI",
      "outputs": [
        {
          "internalType": "string",
          "name": "",
          "type": "string"
        }
      ],
      "stateMutability": "view",
      "type": "function"
    },
    {
      "inputs": [
        {
          "internalType": "address",
          "name": "from",
          "type": "address"
        },
        {
          "internalType": "address",
          "name": "to",
          "type": "address"
        },
        {
          "internalType": "uint256",
          "name": "tokenId",
          "type": "uint256"
        }
      ],
      "name": "transferFrom",
      "outputs": [],
      "stateMutability": "nonpayable",
      "type": "function"
    },
    {
      "inputs": [
        {
          "internalType": "address",
          "name": "newOwner",
          "type": "address"
        }
      ],
      "name": "transferOwnership",
      "outputs": [],
      "stateMutability": "nonpayable",
      "type": "function"
    }
  ],
  "bytecode": "0x60806040523480156200001157600080fd5b5060405162001c1d38038062001c1d8339810160408190526200003491620001e9565b604080518082018252601381527f4e6966747920506978656c7320546f6b656e730000000000000000000000000060208083019182528351808501909452600384526213941560ea1b908401528151919291620000949160009162000143565b508051620000aa90600190602084019062000143565b505050620000c7620000c1620000ed60201b60201c565b620000f1565b600980546001600160a01b0319166001600160a01b039290921691909117905562000256565b3390565b600780546001600160a01b038381166001600160a01b0319831681179093556040519116919082907f8be0079c531659141344cd1fd0a4f28419497f9722a3daafe3b4186f6b6457e090600090a35050565b828054620001519062000219565b90600052602060002090601f016020900481019282620001755760008555620001c0565b82601f106200019057805160ff1916838001178555620001c0565b82800160010185558215620001c0579182015b82811115620001c0578251825591602001919060010190620001a3565b50620001ce929150620001d2565b5090565b5b80821115620001ce5760008155600101620001d3565b600060208284031215620001fb578081fd5b81516001600160a01b038116811462000212578182fd5b9392505050565b600181811c908216806200022e57607f821691505b602082108114156200025057634e487b7160e01b600052602260045260246000fd5b50919050565b6119b780620002666000396000f3fe608060405234801561001057600080fd5b50600436106101215760003560e01c8063715018a6116100ad578063b88d4fde11610071578063b88d4fde14610257578063c87b56dd1461026a578063e985e9c51461027d578063f2fde38b146102b9578063fae92612146102cc57600080fd5b8063715018a6146102105780638da5cb5b14610218578063956236411461022957806395d89b411461023c578063a22cb4651461024457600080fd5b806323b872dd116100f457806323b872dd146101a35780632f2f2d56146101b657806342842e0e146101d75780636352211e146101ea57806370a08231146101fd57600080fd5b806301ffc9a71461012657806306fdde031461014e578063081812fc14610163578063095ea7b31461018e575b600080fd5b6101396101343660046115ee565b6102df565b60405190151581526020015b60405180910390f35b610156610331565b6040516101459190611737565b610176610171366004611687565b6103c3565b6040516001600160a01b039091168152602001610145565b6101a161019c3660046115c5565b610450565b005b6101a16101b13660046114d7565b610566565b6101c96101c4366004611626565b610597565b604051908152602001610145565b6101a16101e53660046114d7565b610635565b6101766101f8366004611687565b610650565b6101c961020b36600461148b565b6106c7565b6101a161074e565b6007546001600160a01b0316610176565b600954610176906001600160a01b031681565b610156610784565b6101a161025236600461158b565b610793565b6101a1610265366004611512565b610858565b610156610278366004611687565b610890565b61013961028b3660046114a5565b6001600160a01b03918216600090815260056020908152604080832093909416825291909152205460ff1690565b6101a16102c736600461148b565b610a07565b6101a16102da36600461148b565b610aa2565b60006001600160e01b031982166380ac58cd60e01b148061031057506001600160e01b03198216635b5e139f60e01b145b8061032b57506301ffc9a760e01b6001600160e01b03198316145b92915050565b606060008054610340906118bf565b80601f016020809104026020016040519081016040528092919081815260200182805461036c906118bf565b80156103b95780601f1061038e576101008083540402835291602001916103b9565b820191906000526020600020905b81548152906001019060200180831161039c57829003601f168201915b5050505050905090565b60006103ce82610aee565b6104345760405162461bcd60e51b815260206004820152602c60248201527f4552433732313a20617070726f76656420717565727920666f72206e6f6e657860448201526b34b9ba32b73a103a37b5b2b760a11b60648201526084015b60405180910390fd5b506000908152600460205260409020546001600160a01b031690565b600061045b82610650565b9050806001600160a01b0316836001600160a01b031614156104c95760405162461bcd60e51b815260206004820152602160248201527f4552433732313a20617070726f76616c20746f2063757272656e74206f776e656044820152603960f91b606482015260840161042b565b336001600160a01b03821614806104e557506104e5813361028b565b6105575760405162461bcd60e51b815260206004820152603860248201527f4552433732313a20617070726f76652063616c6c6572206973206e6f74206f7760448201527f6e6572206e6f7220617070726f76656420666f7220616c6c0000000000000000606482015260840161042b565b6105618383610b0b565b505050565b6105703382610b79565b61058c5760405162461bcd60e51b815260040161042b906117ff565b610561838383610c5f565b60006105a7600880546001019055565b60006105b260085490565b90506105be3382610dff565b6105c88185610f32565b6009546105df906001600160a01b03166001610793565b80336001600160a01b031660006001600160a01b03167f65d18d93b4a79021973eb220e39554c1d14a874f054671f68f9fb44807593167878760405161062692919061174a565b60405180910390a49392505050565b61056183838360405180602001604052806000815250610858565b6000818152600260205260408120546001600160a01b03168061032b5760405162461bcd60e51b815260206004820152602960248201527f4552433732313a206f776e657220717565727920666f72206e6f6e657869737460448201526832b73a103a37b5b2b760b91b606482015260840161042b565b60006001600160a01b0382166107325760405162461bcd60e51b815260206004820152602a60248201527f4552433732313a2062616c616e636520717565727920666f7220746865207a65604482015269726f206164647265737360b01b606482015260840161042b565b506001600160a01b031660009081526003602052604090205490565b6007546001600160a01b031633146107785760405162461bcd60e51b815260040161042b906117ca565b6107826000610fbd565b565b606060018054610340906118bf565b6001600160a01b0382163314156107ec5760405162461bcd60e51b815260206004820152601960248201527f4552433732313a20617070726f766520746f2063616c6c657200000000000000604482015260640161042b565b3360008181526005602090815260408083206001600160a01b03871680855290835292819020805460ff191686151590811790915590519081529192917f17307eab39ab6107e8899845ad3d59bd9653f200f220920489ca2b5937696c31910160405180910390a35050565b6108623383610b79565b61087e5760405162461bcd60e51b815260040161042b906117ff565b61088a8484848461100f565b50505050565b606061089b82610aee565b6109015760405162461bcd60e51b815260206004820152603160248201527f45524337323155524953746f726167653a2055524920717565727920666f72206044820152703737b732bc34b9ba32b73a103a37b5b2b760791b606482015260840161042b565b6000828152600660205260408120805461091a906118bf565b80601f0160208091040260200160405190810160405280929190818152602001828054610946906118bf565b80156109935780601f1061096857610100808354040283529160200191610993565b820191906000526020600020905b81548152906001019060200180831161097657829003601f168201915b5050505050905060006109b160408051602081019091526000815290565b90508051600014156109c4575092915050565b8151156109f65780826040516020016109de9291906116cb565b60405160208183030381529060405292505050919050565b6109ff84611042565b949350505050565b6007546001600160a01b03163314610a315760405162461bcd60e51b815260040161042b906117ca565b6001600160a01b038116610a965760405162461bcd60e51b815260206004820152602660248201527f4f776e61626c653a206e6577206f776e657220697320746865207a65726f206160448201526564647265737360d01b606482015260840161042b565b610a9f81610fbd565b50565b6007546001600160a01b03163314610acc5760405162461bcd60e51b815260040161042b906117ca565b600980546001600160a01b0319166001600160a01b0392909216919091179055565b6000908152600260205260409020546001600160a01b0316151590565b600081815260046020526040902080546001600160a01b0319166001600160a01b0384169081179091558190610b4082610650565b6001600160a01b03167f8c5be1e5ebec7d5bd14f71427d1e84f3dd0314c0f7b2291e5b200ac8c7c3b92560405160405180910390a45050565b6000610b8482610aee565b610be55760405162461bcd60e51b815260206004820152602c60248201527f4552433732313a206f70657261746f7220717565727920666f72206e6f6e657860448201526b34b9ba32b73a103a37b5b2b760a11b606482015260840161042b565b6000610bf083610650565b9050806001600160a01b0316846001600160a01b03161480610c2b5750836001600160a01b0316610c20846103c3565b6001600160a01b0316145b806109ff57506001600160a01b0380821660009081526005602090815260408083209388168352929052205460ff166109ff565b826001600160a01b0316610c7282610650565b6001600160a01b031614610cda5760405162461bcd60e51b815260206004820152602960248201527f4552433732313a207472616e73666572206f6620746f6b656e2074686174206960448201526839903737ba1037bbb760b91b606482015260840161042b565b6001600160a01b038216610d3c5760405162461bcd60e51b8152602060048201526024808201527f4552433732313a207472616e7366657220746f20746865207a65726f206164646044820152637265737360e01b606482015260840161042b565b610d47600082610b0b565b6001600160a01b0383166000908152600360205260408120805460019290610d7090849061187c565b90915550506001600160a01b0382166000908152600360205260408120805460019290610d9e908490611850565b909155505060008181526002602052604080822080546001600160a01b0319166001600160a01b0386811691821790925591518493918716917fddf252ad1be2c89b69c2b068fc378daa952ba7f163c4a11628f55a4df523b3ef91a4505050565b6001600160a01b038216610e555760405162461bcd60e51b815260206004820181905260248201527f4552433732313a206d696e7420746f20746865207a65726f2061646472657373604482015260640161042b565b610e5e81610aee565b15610eab5760405162461bcd60e51b815260206004820152601c60248201527f4552433732313a20746f6b656e20616c7265616479206d696e74656400000000604482015260640161042b565b6001600160a01b0382166000908152600360205260408120805460019290610ed4908490611850565b909155505060008181526002602052604080822080546001600160a01b0319166001600160a01b03861690811790915590518392907fddf252ad1be2c89b69c2b068fc378daa952ba7f163c4a11628f55a4df523b3ef908290a45050565b610f3b82610aee565b610f9e5760405162461bcd60e51b815260206004820152602e60248201527f45524337323155524953746f726167653a2055524920736574206f66206e6f6e60448201526d32bc34b9ba32b73a103a37b5b2b760911b606482015260840161042b565b6000828152600660209081526040909120825161056192840190611341565b600780546001600160a01b038381166001600160a01b0319831681179093556040519116919082907f8be0079c531659141344cd1fd0a4f28419497f9722a3daafe3b4186f6b6457e090600090a35050565b61101a848484610c5f565b6110268484848461111a565b61088a5760405162461bcd60e51b815260040161042b90611778565b606061104d82610aee565b6110b15760405162461bcd60e51b815260206004820152602f60248201527f4552433732314d657461646174613a2055524920717565727920666f72206e6f60448201526e3732bc34b9ba32b73a103a37b5b2b760891b606482015260840161042b565b60006110c860408051602081019091526000815290565b905060008151116110e85760405180602001604052806000815250611113565b806110f284611227565b6040516020016111039291906116cb565b6040516020818303038152906040525b9392505050565b60006001600160a01b0384163b1561121c57604051630a85bd0160e11b81526001600160a01b0385169063150b7a029061115e9033908990889088906004016116fa565b602060405180830381600087803b15801561117857600080fd5b505af19250505080156111a8575060408051601f3d908101601f191682019092526111a59181019061160a565b60015b611202573d8080156111d6576040519150601f19603f3d011682016040523d82523d6000602084013e6111db565b606091505b5080516111fa5760405162461bcd60e51b815260040161042b90611778565b805181602001fd5b6001600160e01b031916630a85bd0160e11b1490506109ff565b506001949350505050565b60608161124b5750506040805180820190915260018152600360fc1b602082015290565b8160005b8115611275578061125f816118fa565b915061126e9050600a83611868565b915061124f565b60008167ffffffffffffffff81111561129e57634e487b7160e01b600052604160045260246000fd5b6040519080825280601f01601f1916602001820160405280156112c8576020820181803683370190505b5090505b84156109ff576112dd60018361187c565b91506112ea600a86611915565b6112f5906030611850565b60f81b81838151811061131857634e487b7160e01b600052603260045260246000fd5b60200101906001600160f81b031916908160001a90535061133a600a86611868565b94506112cc565b82805461134d906118bf565b90600052602060002090601f01602090048101928261136f57600085556113b5565b82601f1061138857805160ff19168380011785556113b5565b828001600101855582156113b5579182015b828111156113b557825182559160200191906001019061139a565b506113c19291506113c5565b5090565b5b808211156113c157600081556001016113c6565b600067ffffffffffffffff808411156113f5576113f5611955565b604051601f8501601f19908116603f0116810190828211818310171561141d5761141d611955565b8160405280935085815286868601111561143657600080fd5b858560208301376000602087830101525050509392505050565b80356001600160a01b038116811461146757600080fd5b919050565b600082601f83011261147c578081fd5b611113838335602085016113da565b60006020828403121561149c578081fd5b61111382611450565b600080604083850312156114b7578081fd5b6114c083611450565b91506114ce60208401611450565b90509250929050565b6000806000606084860312156114eb578081fd5b6114f484611450565b925061150260208501611450565b9150604084013590509250925092565b60008060008060808587031215611527578081fd5b61153085611450565b935061153e60208601611450565b925060408501359150606085013567ffffffffffffffff811115611560578182fd5b8501601f81018713611570578182fd5b61157f878235602084016113da565b91505092959194509250565b6000806040838503121561159d578182fd5b6115a683611450565b9150602083013580151581146115ba578182fd5b809150509250929050565b600080604083850312156115d7578182fd5b6115e083611450565b946020939093013593505050565b6000602082840312156115ff578081fd5b81356111138161196b565b60006020828403121561161b578081fd5b81516111138161196b565b60008060408385031215611638578182fd5b823567ffffffffffffffff8082111561164f578384fd5b61165b8683870161146c565b93506020850135915080821115611670578283fd5b5061167d8582860161146c565b9150509250929050565b600060208284031215611698578081fd5b5035919050565b600081518084526116b7816020860160208601611893565b601f01601f19169290920160200192915050565b600083516116dd818460208801611893565b8351908301906116f1818360208801611893565b01949350505050565b6001600160a01b038581168252841660208201526040810183905260806060820181905260009061172d9083018461169f565b9695505050505050565b602081526000611113602083018461169f565b60408152600061175d604083018561169f565b828103602084015261176f818561169f565b95945050505050565b60208082526032908201527f4552433732313a207472616e7366657220746f206e6f6e20455243373231526560408201527131b2b4bb32b91034b6b83632b6b2b73a32b960711b606082015260800190565b6020808252818101527f4f776e61626c653a2063616c6c6572206973206e6f7420746865206f776e6572604082015260600190565b60208082526031908201527f4552433732313a207472616e736665722063616c6c6572206973206e6f74206f6040820152701ddb995c881b9bdc88185c1c1c9bdd9959607a1b606082015260800190565b6000821982111561186357611863611929565b500190565b6000826118775761187761193f565b500490565b60008282101561188e5761188e611929565b500390565b60005b838110156118ae578181015183820152602001611896565b8381111561088a5750506000910152565b600181811c908216806118d357607f821691505b602082108114156118f457634e487b7160e01b600052602260045260246000fd5b50919050565b600060001982141561190e5761190e611929565b5060010190565b6000826119245761192461193f565b500690565b634e487b7160e01b600052601160045260246000fd5b634e487b7160e01b600052601260045260246000fd5b634e487b7160e01b600052604160045260246000fd5b6001600160e01b031981168114610a9f57600080fdfea264697066735822122073e2ad04562fab3263fb6bd9ba16df2f8cd628f3153a19c6f945b5292fdeedaa64736f6c63430008040033",
  "linkReferences": {},
  "deployedLinkReferences": {}
}